:100000000428FF3FFF3FFF3F03138316860107309D
:100010008312A600A701F524DC30A6000530A70056
:10002000BC30A8000230A9006123A401A501003062
:100030002502031D1D286430240203184228861758
:100040000230FB00FF30FA00FB0B27282A28FA0BAE
:10005000272824284A30FA00FA0B2C288613193056
:10006000FB00FF30FA00FB0B36283928FA0B362844
:1000700033289B30FA00FA0B3B280000A40A03192E
:10008000A50A1728A401A50100302502031D4A284E
:100090006430240203186F2806160230FB00FF307C
:1000A000FA00FB0B54285728FA0B542851284A30E1
:1000B000FA00FA0B592806121930FB00FF30FA003B
:1000C000FB0B63286628FA0B632860289B30FA0034
:1000D000FA0B68280000A40A0319A50A4428A40101
:1000E000A50100302502031D77286430240203187F
:1000F0009C2886140230FB00FF30FA00FB0B81289D
:100100008428FA0B81287E284A30FA00FA0B8628C8
:1001100086101930FB00FF30FA00FB0B9028932863
:10012000FA0B90288D289B30FA00FA0B95280000D6
:10013000A40A0319A50A7128A401A501003025020B
:10014000031DA428643024020318C928881702302C
:10015000FB00FF30FA00FB0BAE28B128FA0BAE28EB
:10016000AB284A30FA00FA0BB32888131930FB0089
:10017000FF30FA00FB0BBD28C028FA0BBD28BA28B7
:100180009B30FA00FA0BC2280000A40A0319A50A42
:100190009E28A401A50100302502031DD12864304A
:1001A00024020318F62808160230FB00FF30FA007C
:1001B000FB0BDB28DE28FA0BDB28D8284A30FA00B4
:1001C000FA0BE02808121930FB00FF30FA00FB0B95
:1001D000EA28ED28FA0BEA28E7289B30FA00FA0B08
:1001E000EF280000A40A0319A50ACB28A401A50141
:1001F00000302502031DFE28643024020318232941
:1002000088150230FB00FF30FA00FB0B08290B2990
:10021000FA0B082905294A30FA00FA0B0D29881132
:100220001930FB00FF30FA00FB0B17291A29FA0BD3
:10023000172914299B30FA00FA0B1C290000A40A84
:100240000319A50AF828A401A50100302502031D01
:100250002B29643024020318502986170330FB0031
:10026000FF30FA00FB0B35293829FA0B35293229E2
:100270009630FA00FA0B3A2986131830FB00FF304B
:10028000FA00FB0B44294729FA0B442941294F3036
:10029000FA00FA0B49290000A40A0319A50A252926
:1002A000A401A50100302502031D58296430240251
:1002B00003187D2906160330FB00FF30FA00FB0B04
:1002C00062296529FA0B62295F299630FA00FA0B38
:1002D000672906121830FB00FF30FA00FB0B71296A
:1002E0007429FA0B71296E294F30FA00FA0B76291E
:1002F0000000A40A0319A50A5229A401A50100308F
:100300002502031D8529643024020318AA298614B6
:100310000330FB00FF30FA00FB0B8F299229FA0B08
:100320008F298C299630FA00FA0B94298610183000
:10033000FB00FF30FA00FB0B9E29A129FA0B9E2936
:100340009B294F30FA00FA0BA3290000A40A0319D5
:10035000A50A7F29A401A50100302502031DB229A9
:10036000643024020318D72988170330FB00FF30BC
:10037000FA00FB0BBC29BF29FA0BBC29B92996301E
:10038000FA00FA0BC12988131830FB00FF30FA007D
:10039000FB0BCB29CE29FA0BCB29C8294F30FA0009
:1003A000FA0BD0290000A40A0319A50AAC29A4015C
:1003B000A50100302502031DDF2964302402031843
:1003C000042A08160330FB00FF30FA00FB0BE92972
:1003D000EC29FA0BE929E6299630FA00FA0BEE2906
:1003E00008121830FB00FF30FA00FB0BF829FB293C
:1003F000FA0BF829F5294F30FA00FA0BFD29000015
:10040000A40A0319A50AD929A401A50100302502CF
:10041000031D0C2A643024020318312A8815033086
:10042000FB00FF30FA00FB0B162A192AFA0B162ADA
:10043000132A9630FA00FA0B1B2A88111830FB0099
:10044000FF30FA00FB0B252A282AFA0B252A222A3C
:100450004F30FA00FA0B2A2A0000A40A0319A50A51
:10046000062A1528322A031383127408F802750825
:10047000031C750FF9027608031C760FFA02770841
:10048000031C770FFB02F30D0730FC00730DF80D12
:10049000F90DFA0DFB0D7408731C5C2AF80275083F
:1004A000031C750FF9027608031C760FFA02770811
:1004B000031C770FFB02692AF80775080318750FEC
:1004C000F90776080318760FFA0777080318770FED
:1004D000FB07F30DFC0B462A720DF80DF90DFA0D12
:1004E000FB0D7408731C822AF8027508031C750F33
:1004F000F9027608031C760FFA027708031C770FBF
:10050000FB028F2AF80775080318750FF90776089C
:100510000318760FFA0777080318770FFB07F20D19
:100520000730FC00720DF80DF90DFA0DFB0D740883
:10053000721CA82AF8027508031C750FF9027608C8
:10054000031C760FFA027708031C770FFB02B52A0B
:10055000F80775080318750FF90776080318760F62
:10056000FA0777080318770FFB07F20DFC0B922AA6
:10057000710DF80DF90DFA0DFB0D7408721CCE2AE1
:10058000F8027508031C750FF9027608031C760F34
:10059000FA027708031C770FFB02DB2AF8077508BD
:1005A0000318750FF90776080318760FFA0777080E
:1005B0000318770FFB07F10D0730FC00710DF80DE4
:1005C000F90DFA0DFB0D7408711CF42AF802750878
:1005D000031C750FF9027608031C760FFA027708E0
:1005E000031C770FFB02012BF80775080318750F22
:1005F000F90776080318760FFA0777080318770FBC
:10060000FB07F10DFC0BDE2A700DF80DF90DFA0D4C
:10061000FB0D7408711C1A2BF8027508031C750F6A
:10062000F9027608031C760FFA027708031C770F8D
:10063000FB02272BF80775080318750FF9077608D2
:100640000318760FFA0777080318770FFB07F00DEA
:100650000730FC00700DF80DF90DFA0DFB0D740854
:10066000701C402BF8027508031C750FF902760800
:10067000031C760FFA027708031C770FFB024D2B41
:10068000F80775080318750FF90776080318760F31
:10069000FA0777080318770FFB07F00DFC0B2A2BDE
:1006A0007018602B7408F80775080318750FF907A0
:1006B00076080318760FFA0777080318770FFB07F9
:1006C00008003025E830F4000330F500F601F701AA
:1006D000A1247008AC007108AD007208AE00730868
:1006E000AF002608F4002708F500F601F7010724FB
:1006F0007008AC007108AD007208AE007308AF005E
:100700000330F400740803198C2BF30CF20CF10C79
:10071000F00CF313FF3F832B7008AA007108AB00A5
:1007200030252808F4002908F500F601F701A12476
:100730007008B0007108B1007208B2007308B3000D
:100740002A08F0002B08F100F201F3010330F40055
:1007500074080319B22BF00DF10DF20DF30D7010AA
:10076000FF3FA92B7008F4007108F5007208F6002D
:100770007308F7003008F0003108F1003208F20089
:100780003308F30007247008AC007108AD0072084C
:10079000AE007308AF000A30F4000030F5002A08FC
:1007A000F0002B08F100D8247008AA007108AB00F3
:1007B00000307102031DDE2B033070020318E12BA1
:1007C0000800210884002C08F0002D08F1002E08F4
:1007D000F2002F08F3000130AC02031CAD02031C31
:1007E000AE02031CAF027008710472047304031993
:1007F000042C220880042A08B4001125230880054F
:100800002A08B4001125E32B2308800508000313F0
:100810008312FC01F71BFC0AFD01FB01FA01F9013F
:10082000F801730872047104700403199B2C730897
:100830007706A000A01BFD09F71F292CF409F50974
:10084000F609F709F40A0319F50A0319F60A031958
:10085000F70AF31F362CF009F109F209F309F00A3F
:100860000319F10A0319F20A0319F30A730877044A
:10087000A000A01B572C3322FC1B742CFD1F9B2CAB
:10088000F009F109F209F309F00A0319F10A031951
:10089000F20A0319F30AF809F909FA09FB09F80A37
:1008A0000319F90A0319FA0A0319FB0A9B2CF71F0B
:1008B0006E2CF31B682C7308FB007208FA00710899
:1008C000F9007008F800F301F201F101F0013E2C8B
:1008D000F301F201F101F001F00A0034F309F20929
:1008E000F109F009FC173B2CF80A0319F90A03195E
:1008F000FA0A0319FB0A74087802031D3E2C7508D6
:100900007902031D3E2C76087A02031D3E2C7708DF
:100910007B02031D3E2CFB01FA01F901F801F00AEC
:100920000319F10A0319F20A0319F30AF31F3E2C03
:10093000A0012016FF34A0017C1C9F2C2225003F23
:100940000800031383122230FC00F801F901FA01B8
:10095000FB01FC030319D72C0310FB0CFA0CF90C58
:10096000F80CF30CF20CF10CF00C031CA92CFC039A
:100970000319C92C7408F80775080318750FF907CF
:1009800076080318760FFA0777080318770FFB0726
:10099000AD2C7408F80775080318750FF907760869
:1009A0000318760FFA0777080318770FFB0708007C
:1009B00003138312F801F9011030FC00710DF80DDA
:1009C000F90D7408F8027508031C750FF902031875
:1009D000F02C7408F80775080318750FF907031051
:1009E000F00DF10DFC0BDE2C08000313831226081A
:1009F000A1002708F1000130F00071080319042D4F
:100A0000F00D7010FF3FFE2C7008A200F009700876
:100A1000A3002608840070088005841770088005EC
:100A2000080003138312B403B4033408003C031812
:100A30001E2DB403000000000000152D0000000072
:100A40000000080003138312FB09FA09F909F809E9
:100A5000F80A0319F90A0319FA0A0319FB0A08002C
:100A6000A03003138312F0000F30F100F201F30104
:100A70000800FF3FFF3FFF3FFF3FFF3FFF3FFF3FBC
:02400E007A3FF7
:00000001FF
