:100000000428FF3FFF3FFF3F031383168601F030B4
:1000100083128600C03086006630FC00FF30FB0093
:10002000FF30FA00FC0B15281C28FB0B18281B2896
:10003000FA0B182815281228FC30FB00FF30FA00B4
:10004000FB0B23282628FA0B232820286A30FA00E5
:10005000FA0B2828A03086006630FC00FF30FB0039
:10006000FF30FA00FC0B35283C28FB0B38283B28D6
:10007000FA0B382835283228FC30FB00FF30FA0014
:10008000FB0B43284628FA0B432840286A30FA0025
:10009000FA0B482886010A284C28FF3FFF3FFF3F04
:02400E007A3FF7
:00000001FF
