:100000000428FF3FFF3FFF3FFF30031383168500A7
:1000100020309F0088018601870107308312B000DD
:10002000B101712786238030F000803029067002EC
:10003000031D24282808003C031D24282708003C11
:10004000031D24282608323C031827280714AA0178
:10005000AB0100302B02031D2F280A302A0203189F
:100060004329A401A50100302502031D39280A30C7
:10007000240203185E2806160330FB00FF30FA0046
:10008000FB0B43284628FA0B43284028B730FA00D8
:10009000FA0B4828000006121830FB00FF30FA0067
:1000A000FB0B53285628FA0B532850282E30FA0001
:1000B000FA0B5828A40A0319A50A3328A401A5019C
:1000C00000302502031D66280A30240203188B28FD
:1000D00088170230FB00FF30FA00FB0B70287328F2
:1000E000FA0B70286D284A30FA00FA0B752888132D
:1000F0001930FB00FF30FA00FB0B7F288228FA0B37
:100100007F287C289B30FA00FA0B84280000A40A80
:100110000319A50A6028A401A50100302502031DCA
:1001200093280A3024020318B82888150330FB00EE
:10013000FF30FA00FB0B9D28A028FA0B9D289A2877
:10014000B730FA00FA0BA228000088111830FB0023
:10015000FF30FA00FB0BAD28B028FA0BAD28AA2817
:100160002E30FA00FA0BB228A40A0319A50A8D282A
:10017000A401A50100302502031DC0280A30240275
:100180000318E52806160230FB00FF30FA00FB0BCF
:10019000CA28CD28FA0BCA28C7284A30FA00FA0B19
:1001A000CF2806121930FB00FF30FA00FB0BD928CC
:1001B000DC28FA0BD928D6289B30FA00FA0BDE2867
:1001C0000000A40A0319A50ABA28A401A501003059
:1001D0002502031DED280A3024020318122988176E
:1001E0000330FB00FF30FA00FB0BF728FA28FA0B6C
:1001F000F728F428B730FA00FA0BFC28000088131F
:100200001830FB00FF30FA00FB0B07290A29FA0B14
:10021000072904292E30FA00FA0B0C29A40A031925
:10022000A50AE728A401A50100302502031D1A290B
:100230000A30240203183F2988150230FB00FF30E2
:10024000FA00FB0B24292729FA0B242921294A30FB
:10025000FA00FA0B292988111930FB00FF30FA0047
:10026000FB0B33293629FA0B332930299B30FA004E
:10027000FA0B38290000A40A0319A50A1429AA0AAE
:100280000319AB0A2928AC01AD0100302D02031D72
:100290004B290A302C0203185F2AA401A501003063
:1002A0002502031D55290A30240203187A298617CE
:1002B0000230FB00FF30FA00FB0B5F296229FA0BCA
:1002C0005F295C294A30FA00FA0B64298613193039
:1002D000FB00FF30FA00FB0B6E297129FA0B6E2927
:1002E0006B299B30FA00FA0B73290000A40A03194A
:1002F000A50A4F29A401A50100302502031D82296A
:100300000A3024020318A72906160230FB00FF302A
:10031000FA00FB0B8C298F29FA0B8C2989294A308A
:10032000FA00FA0B912906121930FB00FF30FA008F
:10033000FB0B9B299E29FA0B9B2998299B30FA00DD
:10034000FA0BA0290000A40A0319A50A7C29A4011C
:10035000A50100302502031DAF290A30240203182D
:10036000D42986140230FB00FF30FA00FB0BB929B8
:10037000BC29FA0BB929B6294A30FA00FA0BBE2972
:1003800086101930FB00FF30FA00FB0BC829CB297F
:10039000FA0BC829C5299B30FA00FA0BCD290000B9
:1003A000A40A0319A50AA929A401A5010030250260
:1003B000031DDC290A3024020318012A88170330A0
:1003C000FB00FF30FA00FB0BE629E929FA0BE629CE
:1003D000E329B730FA00FA0BEB2900008813183034
:1003E000FB00FF30FA00FB0BF629F929FA0BF6297E
:1003F000F3292E30FA00FA0BFB29A40A0319A50AE7
:10040000D629A401A50100302502031D092A0A30BE
:10041000240203182E2A08160230FB00FF30FA00CF
:10042000FB0B132A162AFA0B132A102A4A30FA0059
:10043000FA0B182A08121930FB00FF30FA00FB0BE8
:10044000222A252AFA0B222A1F2A9B30FA00FA0BAD
:10045000272A0000A40A0319A50A032AA401A5015A
:1004600000302502031D362A0A30240203185B2AB5
:1004700088150230FB00FF30FA00FB0B402A432AAC
:10048000FA0B402A3D2A4A30FA00FA0B452A881115
:100490001930FB00FF30FA00FB0B4F2A522AFA0BEF
:1004A0004F2A4C2A9B30FA00FA0B542A0000A40A67
:1004B0000319A50A302AAC0A0319AD0A4529AE0171
:1004C000AF0100302F02031D672A0A302E020318E5
:1004D000842BA401A50100302502031D712A0A30D6
:1004E00024020318992A86170330FB00FF30FA0014
:1004F000FB0B7B2A7E2AFA0B7B2A782A7430FA00BF
:10050000FA0B802A0000000086131830FB00FF3031
:10051000FA00FB0B8C2A8F2AFA0B8C2A892A70305E
:10052000FA00FA0B912A00000000A40A0319A50A98
:100530006B2AA401A50100302502031DA12A0A305F
:1005400024020318C62A06160230FB00FF30FA0008
:10055000FB0BAB2AAE2AFA0BAB2AA82A4A30FA00C8
:10056000FA0BB02A06121930FB00FF30FA00FB0B21
:10057000BA2ABD2AFA0BBA2AB72A9B30FA00FA0B1C
:10058000BF2A0000A40A0319A50A9B2AA401A501F9
:1005900000302502031DCE2A0A3024020318F62A51
:1005A00086140330FB00FF30FA00FB0BD82ADB2A4D
:1005B000FA0BD82AD52A7430FA00FA0BDD2A00008B
:1005C000000086101830FB00FF30FA00FB0BE92A10
:1005D000EC2AFA0BE92AE62A7030FA00FA0BEE2A26
:1005E00000000000A40A0319A50AC82AA401A50155
:1005F00000302502031DFE2A0A3024020318232B93
:1006000088170330FB00FF30FA00FB0B082B0B2B85
:10061000FA0B082B052BB730FA00FA0B0D2B000054
:1006200088131830FB00FF30FA00FB0B182B1B2B34
:10063000FA0B182B152B2E30FA00FA0B1D2BA40ADF
:100640000319A50AF82AA401A50100302502031DFB
:100650002B2B0A3024020318532B08160330FB00FF
:10066000FF30FA00FB0B352B382BFA0B352B322BD6
:100670007430FA00FA0B3A2B000000000812183010
:10068000FB00FF30FA00FB0B462B492BFA0B462BE5
:10069000432B7030FA00FA0B4B2B00000000A40A29
:1006A0000319A50A252BA401A50100302502031D6D
:1006B0005B2B0A3024020318802B88150230FB00C4
:1006C000FF30FA00FB0B652B682BFA0B652B622BB6
:1006D0004A30FA00FA0B6A2B88111930FB00FF3000
:1006E000FA00FB0B742B772BFA0B742B712B9B30BE
:1006F000FA00FA0B792B0000A40A0319A50A552B5E
:10070000AE0A0319AF0A612A1328852BE8300313B8
:100710008312B2000330B300E830B4000330B500F8
:10072000DD25A401A50100302502031D992B4B30C6
:1007300024020318BF2B86170230FB00FF30FA009B
:10074000FB0BA32BA62BFA0BA32BA02BF030FA004C
:10075000FA0BA82B0000000086131830FB00FF30B6
:10076000FA00FB0BB42BB72BFA0BB42BB12BF630E2
:10077000FA00FA0BB92BA40A0319A50A932BA401BA
:10078000A50100302502031DC72B4B30240203189E
:10079000ED2B06160230FB00FF30FA00FB0BD12BCD
:1007A000D42BFA0BD12BCE2BF030FA00FA0BD62B30
:1007B0000000000006121830FB00FF30FA00FB0BAF
:1007C000E22BE52BFA0BE22BDF2BF630FA00FA0BCB
:1007D000E72BA40A0319A50AC12BA401A501003027
:1007E0002502031DF52B4B30240203181B2C861405
:1007F0000230FB00FF30FA00FB0BFF2B022CFA0B40
:10080000FF2BFC2BF030FA00FA0B042C0000000048
:1008100086101830FB00FF30FA00FB0B102C132C55
:10082000FA0B102C0D2CF630FA00FA0B152CA40A3A
:100830000319A50AEF2BA401A50100302502031D11
:10084000232C4B3024020318492C88170230FB005C
:10085000FF30FA00FB0B2D2C302CFA0B2D2C2A2C00
:10086000F030FA00FA0B322C000000008813183028
:10087000FB00FF30FA00FB0B3E2C412CFA0B3E2C08
:100880003B2CF630FA00FA0B432CA40A0319A50AF4
:100890001D2CA401A50100302502031D512C4B3055
:1008A00024020318772C08160230FB00FF30FA00F0
:1008B000FB0B5B2C5E2CFA0B5B2C582CF030FA00F7
:1008C000FA0B602C0000000008121830FB00FF300B
:1008D000FA00FB0B6C2C6F2CFA0B6C2C692CF6308D
:1008E000FA00FA0B712CA40A0319A50A4B2CA401D7
:1008F000A50100302502031D7F2C4B302402031874
:10090000A52C88150230FB00FF30FA00FB0B892C68
:100910008C2CFA0B892C862CF030FA00FA0B8E2CDA
:100920000000000088111830FB00FF30FA00FB0BBC
:100930009A2C9D2CFA0B9A2C972CF630FA00FA0B75
:100940009F2CA40A0319A50A792CE830B2000330C1
:10095000B300E830B4000330B500DD250800031310
:1009600083127408F8027508031C750FF9027608E3
:10097000031C760FFA027708031C770FFB02F30DB6
:100980000730FC00730DF80DF90DFA0DFB0D74081E
:10099000731CD82CF8027508031C750FF902760831
:1009A000031C760FFA027708031C770FFB02E52C75
:1009B000F80775080318750FF90776080318760FFE
:1009C000FA0777080318770FFB07F30DFC0BC22C0F
:1009D000720DF80DF90DFA0DFB0D7408731CFE2C49
:1009E000F8027508031C750FF9027608031C760FD0
:1009F000FA027708031C770FFB020B2DF807750826
:100A00000318750FF90776080318760FFA077708A9
:100A10000318770FFB07F20D0730FC00720DF80D7D
:100A2000F90DFA0DFB0D7408721C242DF8027508DF
:100A3000031C750FF9027608031C760FFA0277087B
:100A4000031C770FFB02312DF80775080318750F8B
:100A5000F90776080318760FFA0777080318770F57
:100A6000FB07F20DFC0B0E2D710DF80DF90DFA0DB3
:100A7000FB0D7408721C4A2DF8027508031C750FD3
:100A8000F9027608031C760FFA027708031C770F29
:100A9000FB02572DF80775080318750FF90776083C
:100AA0000318760FFA0777080318770FFB07F10D85
:100AB0000730FC00710DF80DF90DFA0DFB0D7408EF
:100AC000711C702DF8027508031C750FF902760869
:100AD000031C760FFA027708031C770FFB027D2DAB
:100AE000F80775080318750FF90776080318760FCD
:100AF000FA0777080318770FFB07F10DFC0B5A2D47
:100B0000700DF80DF90DFA0DFB0D7408711C962D82
:100B1000F8027508031C750FF9027608031C760F9E
:100B2000FA027708031C770FFB02A32DF80775085C
:100B30000318750FF90776080318760FFA07770878
:100B40000318770FFB07F00D0730FC00700DF80D50
:100B5000F90DFA0DFB0D7408701CBC2DF802750818
:100B6000031C750FF9027608031C760FFA0277084A
:100B7000031C770FFB02C92DF80775080318750FC2
:100B8000F90776080318760FFA0777080318770F26
:100B9000FB07F00DFC0BA62D7018DC2D7408F80770
:100BA00075080318750FF90776080318760FFA070A
:100BB00077080318770FFB070800AC27E830F4002C
:100BC0000330F500F601F7011D277008B800710821
:100BD000B9007208BA007308BB003208F400330889
:100BE000F500F601F70183267008B8007108B90016
:100BF0007208BA007308BB000330F40074080319CC
:100C0000082EF30CF20CF10CF00CF313FF3FFF2D48
:100C10007008B6007108B700AC273408F400350836
:100C2000F500F601F7011D277008BC007108BD0032
:100C30007208BE007308BF003608F0003708F100E4
:100C4000F201F3010330F400740803192E2EF00DA5
:100C5000F10DF20DF30D7010FF3F252E7008F4001A
:100C60007108F5007208F6007308F7003C08F00000
:100C70003D08F1003E08F2003F08F30083267008AB
:100C8000B8007108B9007208BA007308BB000A30D6
:100C9000F4000030F5003608F0003708F100542762
:100CA0007008B6007108B70000307102031D5A2E9B
:100CB0000330700203185D2E0800210884003808F4
:100CC000F0003908F1003A08F2003B08F300013067
:100CD000B802031CB902031CBA02031CBB02700851
:100CE0007104720473040319802E220880043608EC
:100CF000C0008D27230880053608C0008D275F2E91
:100D000023088005080003138312FC01F71BFC0A6B
:100D1000FD01FB01FA01F901F80173087204710485
:100D200070040319172F73087706A000A01BFD0994
:100D3000F71FA52EF409F509F609F709F40A0319B6
:100D4000F50A0319F60A0319F70AF31FB22EF00980
:100D5000F109F209F309F00A0319F10A0319F20A79
:100D60000319F30A73087704A000A01BD32EAF2445
:100D7000FC1BF02EFD1F172FF009F109F209F309F2
:100D8000F00A0319F10A0319F20A0319F30AF80920
:100D9000F909FA09FB09F80A0319F90A0319FA0A09
:100DA0000319FB0A172FF71FEA2EF31BE42E730813
:100DB000FB007208FA007108F9007008F800F301EE
:100DC000F201F101F001BA2EF301F201F101F0019B
:100DD000F00A0034F309F209F109F009FC17B72E03
:100DE000F80A0319F90A0319FA0A0319FB0A740825
:100DF0007802031DBA2E75087902031DBA2E7608F3
:100E00007A02031DBA2E77087B02031DBA2EFB015E
:100E1000FA01F901F801F00A0319F10A0319F20ABB
:100E20000319F30AF31FBA2EA0012016FF34A00104
:100E30007C1C1B2F9E27003F0800031383122230C7
:100E4000FC00F801F901FA01FB01FC030319532F1F
:100E50000310FB0CFA0CF90CF80CF30CF20CF10C6F
:100E6000F00C031C252FFC030319452F7408F80709
:100E700075080318750FF90776080318760FFA0737
:100E800077080318770FFB07292F7408F8077508F0
:100E90000318750FF90776080318760FFA07770815
:100EA0000318770FFB07080003138312F801F901F9
:100EB0001030FC00710DF80DF90D7408F80275087A
:100EC000031C750FF90203186C2F7408F8077508D6
:100ED0000318750FF9070310F00DF10DFC0B5A2FD5
:100EE0000800031383123008A1003108F10001301B
:100EF000F00071080319802FF00D7010FF3F7A2F5A
:100F00007008A200F0097008A3003008840070087F
:100F10008005841770088005080003138312C0033E
:100F2000C0034008003C03189A2FC00300000000D3
:100F30000000912F0000000000000800031383123E
:100F4000FB09FA09F909F809F80A0319F90A03195A
:100F5000FA0A0319FB0A0800A03003138312F000F9
:100F60000F30F100F201F3010800FF3FFF3FFF3FA8
:02400E007A3FF7
:00000001FF
