:10000000BC2AFF3FFF3FFF3F031383127408F8022F
:100010007508031C750FF9027608031C760FFA02A7
:100020007708031C770FFB02F30D0730FC00730DFC
:10003000F80DF90DFA0DFB0D7408731C2D28F8024C
:100040007508031C750FF9027608031C760FFA0277
:100050007708031C770FFB023A28F8077508031886
:10006000750FF90776080318760FFA077708031853
:10007000770FFB07F30DFC0B1728720DF80DF90D28
:10008000FA0DFB0D7408731C5328F8027508031C45
:10009000750FF9027608031C760FFA027708031C25
:1000A000770FFB026028F80775080318750FF9072A
:1000B00076080318760FFA0777080318770FFB07FF
:1000C000F20D0730FC00720DF80DF90DFA0DFB0D65
:1000D0007408721C7928F8027508031C750FF90260
:1000E0007608031C760FFA027708031C770FFB02D1
:1000F0008628F80775080318750FF907760803189E
:10010000760FFA0777080318770FFB07F20DFC0B41
:100110006328710DF80DF90DFA0DFB0D7408721CB2
:100120009F28F8027508031C750FF9027608031C56
:10013000760FFA027708031C770FFB02AC28F8074A
:1001400075080318750FF90776080318760FFA0774
:1001500077080318770FFB07F10D0730FC00710DCE
:10016000F80DF90DFA0DFB0D7408711CC528F80285
:100170007508031C750FF9027608031C760FFA0246
:100180007708031C770FFB02D228F80775080318BD
:10019000750FF90776080318760FFA077708031822
:1001A000770FFB07F10DFC0BAF28700DF80DF90D63
:1001B000FA0DFB0D7408711CEB28F8027508031C7E
:1001C000750FF9027608031C760FFA027708031CF4
:1001D000770FFB02F828F80775080318750FF90761
:1001E00076080318760FFA0777080318770FFB07CE
:1001F000F00D0730FC00700DF80DF90DFA0DFB0D38
:100200007408701C1129F8027508031C750FF90297
:100210007608031C760FFA027708031C770FFB029F
:100220001E29F80775080318750FF90776080318D3
:10023000760FFA0777080318770FFB07F00DFC0B12
:10024000FB28701831297408F80775080318750F12
:10025000F90776080318760FFA0777080318770F5F
:10026000FB070800B523E830F4000330F500F60181
:10027000F70126237008AC007108AD007208AE00CB
:100280007308AF002608F4002708F500F601F7010F
:10029000D8217008AC007108AD007208AE00730878
:1002A000AF000330F400740803195D29F30CF20C5D
:1002B000F10CF00CF313FF3F54297008AA007108E9
:1002C000AB00B5232808F4002908F500F601F70172
:1002D00026237008B0007108B1007208B2007308DC
:1002E000B3002A08F0002B08F100F201F3010330FB
:1002F000F400740803198329F00DF10DF20DF30DCC
:100300007010FF3F7A297008F4007108F500720838
:10031000F6007308F7003008F0003108F1003208E9
:10032000F2003308F300D8217008AC007108AD006A
:100330007208AE007308AF000A30F4000030F50018
:100340002A08F0002B08F1005D237008AA0071084C
:10035000AB0000307102031DAF2903307002031897
:10036000B2290800210884002C08F0002D08F100B3
:100370002E08F2002F08F3000130AC02031CAD027E
:10038000031CAE02031CAF027008710472047304F4
:100390000319D529220880042A08B40096232308CB
:1003A00080052A08B4009623B42923088005080094
:1003B00003138312FC01F71BFC0AFD01FB01FA0188
:1003C000F901F801730872047104700403196C2AAE
:1003D00073087706A000A01BFD09F71FFA29F4098E
:1003E000F509F609F709F40A0319F50A0319F60ADB
:1003F0000319F70AF31F072AF009F109F209F309B3
:10040000F00A0319F10A0319F20A0319F30A73082F
:100410007704A000A01B282A0420FC1B452AFD1FEE
:100420006C2AF009F109F209F309F00A0319F10A3B
:100430000319F20A0319F30AF809F909FA09FB0981
:10044000F80A0319F90A0319FA0A0319FB0A6C2AB4
:10045000F71F3F2AF31B392A7308FB007208FA00C2
:100460007108F9007008F800F301F201F101F001E0
:100470000F2AF301F201F101F001F00A0034F3094F
:10048000F209F109F009FC170C2AF80A0319F90A14
:100490000319FA0A0319FB0A74087802031D0F2ACC
:1004A00075087902031D0F2A76087A02031D0F2AA8
:1004B00077087B02031D0F2AFB01FA01F901F801FD
:1004C000F00A0319F10A0319F20A0319F30AF31FD8
:1004D0000F2AA0012016FF34A0017C1C702AA7233C
:1004E000003F080003138312FB01FA01F901803079
:1004F000F800FD01F11F822AF109F009F00A031941
:10050000F10AFD0AF51F8A2AF509F409F40A03190C
:10051000F50AFD0AF10CF00C031C972A7408F90780
:1005200075080318750FFA070318FB0A0310F01F6C
:100530009F2A7408FA070318FB0A7508FB07FB0CCF
:10054000FA0CF90CF80C031C8A2A7D1CB22AFB0950
:10055000FA09F909F809F80A0319F90A0319FA0A54
:100560000319FB0A7B08F3007A08F2007908F1000E
:100570007808F00000000800031383168701073095
:100580008312A600A7017A23121092101930831645
:100590009200CE23BE23A401A50100302502031D35
:1005A000D32A0A3024020318DC2A9630A600ED2252
:1005B000A40A0319A50ACD2A0330FB00FF30FA0074
:1005C000FB0BE32AE62AFA0BE32AE02A9630FA002C
:1005D000FA0BE82AC623CA2AEC2A03138316120848
:1005E000013FF000F1010318F10A83122608F4001C
:1005F000F50172220630F2007008F4007108F5006F
:1006000072080319082BF50CF40CF513FF3F012BAE
:100610007408F000F00D7010F00D7010F00D7010F7
:10062000F00D701030307005F3007408F00075089C
:10063000F100F10CF00CF113F10CF00CF113700857
:100640009B000F309D0573089D040800031383125F
:100650002230FC00F801F901FA01FB01FC03031947
:100660005C2B0310FB0CFA0CF90CF80CF30CF20CDD
:10067000F10CF00C031C2E2BFC0303194E2B7408F9
:10068000F80775080318750FF90776080318760F31
:10069000FA0777080318770FFB07322B7408F8075F
:1006A00075080318750FF90776080318760FFA070F
:1006B00077080318770FFB07080003138312F8016C
:1006C000F9011030FC00710DF80DF90D7408F802F5
:1006D0007508031C750FF9020318752B7408F807C9
:1006E00075080318750FF9070310F00DF10DFC0BD9
:1006F000632B0800031383122608A1002708F100CA
:100700000130F00071080319892BF00D7010FF3FC4
:10071000832B7008A200F0097008A300260884004B
:100720007008800584177008800508000313831281
:10073000B403B4033408003C0318A32BB403000033
:10074000000000009A2B00000000000008000313C6
:100750008312FB09FA09F909F809F80A0319F90AD9
:100760000319FA0A0319FB0A0800A03003138312C5
:10077000F0000F30F100F201F301080003138316BB
:100780008710831212150C309D0408000313831682
:10079000871483121211F0309D0508000313831291
:1007A0009B011D129D120800FF3FFF3FFF3FFF3FCF
:02400E007A3FF7
:00000001FF
