:100000000428FF3FFF3FFF3F4B3003138312AA003A
:100010006530AB007930AC002030AD002030AE0050
:100020003A30AF00B0015430B1006930B2006D30E9
:10003000B3006530B4007330B5003A30B600B70194
:10004000A3010830B80047220630B8006220013012
:10005000C00003210C30C00003210130B800013082
:10006000B9002A30BA0041210230B8000130B9008D
:100070003130BA004121A4010D227008A40070089B
:1000800003193C28A30A24080A3C03184A283630DE
:10009000A4074C282F30A4070130B8000A30B9005B
:1000A0002408BA0084212308B800B9012530BA0019
:1000B000AE200230B8000A30B9002530BA00412124
:1000C0003B2861281E221E221E223808A000380864
:1000D0008400841780110011001080130013801217
:1000E000001284138011001100108013001380127D
:1000F000001280160016801580111E2280158011B6
:100100001E22801580111E2280160012801580117B
:100110001E228001801680158011800180178015B5
:1001200080111E228001001680158011800180152B
:1001300080111E228001801580110016801580110B
:100140001E2280018015801100168016001780176E
:10015000801580111E220130A100080003138312B4
:100160003A088400203080003A0AF00070088400C9
:100170002030800002303A07F00070088400203000
:10018000800003303A07F0007008840020308000BF
:1001900004303A07F00070088400303080000530E9
:1001A0003A07F0007008840080010430BB00390871
:1001B000003C031DDD283808003C031802293B08D9
:1001C0003A07BC000A30F400F5013808F00039089D
:1001D000F100F0217808F0007908F1003030F007E4
:1001E0003C088400700880000A30F400F5013808EB
:1001F000F0003908F100F0217008B8007108B9006A
:10020000BB03D7280800031383122008840040088A
:1002100003190A29801100118013001380120012A3
:10022000C01B8017401B0017C01A8016401A00160A
:10023000210803191D2900111E29001580154C22C3
:100240004008031923298011001180130013801224
:100250000012C019801740190017C01880164018E6
:1002600000162108031936290011372900158015B9
:100270004C228011210803193F291E2240293822CF
:1002800008005329803003138312B8006629C03058
:10029000B80066299430B8006629D430B8006629C1
:1002A0008030B8006629031383123808013A031915
:1002B00042293808023A031947293808033A031932
:1002C0004A293808043A03194D2950293903F00006
:1002D0003808F0077008B8007008C0000321A101B9
:1002E000BB013B083A0784000008F00070080319BE
:1002F00081293B083A0784000008BD002F22BB0A71
:1003000071290130A100080096298030031383125F
:10031000B800A929C030B800A9299430B800A9298B
:10032000D430B800A9298030B800A929031383125A
:100330003808013A031985293808023A03198A292D
:100340003808033A03198D293808043A031990290B
:1003500093293903F0003808F0077008B80001301D
:10036000A1007008C0000321A1013A08C0000321C8
:100370000130A100080003138312BD011030BF003B
:100380003F08003C0318EE2922088400F03080006A
:1003900080302207F1003F09F000FF30F0057108BE
:1003A0008400700880004022220884000008F000C9
:1003B0000F30F0057008BE0070080319E9293E08E7
:1003C0000319E629BE0CBE13BD0ADF293D08F00063
:1003D0000800BF0D3F100430BD07C029F001080020
:1003E00003138312F801F9011030FC00710DF80DB0
:1003F000F90D7408F8027508031C750FF90203184B
:10040000082A7408F80775080318750FF907031010
:10041000F00DF10DFC0BF6290800BB217008B800A7
:10042000220884000008F0000F30F005700803195E
:100430001B2A0000102A3808F000080008300313B7
:100440008312FB00FF30FA00FB0B272A2A2AFA0B43
:10045000272A242A1E30FA00FA0B2C2A080003133C
:100460008312A1013D08C00003210130A100080052
:10047000103003138312FA00FA0B3C2A0000080024
:10048000033003138312FA00FA0B442A0800031303
:1004900083123808A200080000000800FF3FFF3F59
:02400E007A3FF7
:00000001FF
