:100000000428FF3FFF3FFF3F8A1550208A118A15C1
:1000100045228A118A15F6218A1101270F24230807
:100020002107F00022080318013F2407F1002508EA
:10003000F00726080318013FF1072708F0072808F2
:100040000318013FF10729087007F400710803182D
:10005000013F2A07F50000307506031D31280030E6
:100060007406031D7A282B08723A031D56288A1538
:10007000BE228A118A15B9228A11FF30DE008A1544
:1000800028218A11FF30DE008A1592218A110D3055
:10009000FB00FF30FA00FB0B4E285128FA0B4E28CC
:1000A0004B28F330FA00FA0B532800002B086C3A67
:1000B000031D79288A15C3228A118A15B4228A1150
:1000C000FF30DE008A1528218A11FF30DE008A15F4
:1000D00092218A110D30FB00FF30FA00FB0B7128D2
:1000E0007428FA0B71286E28F330FA00FA0B762880
:1000F0000000742AF401F501F601F7013008F00060
:100100003108F1003208F2003308F3008A151D228D
:100110008A110130031D0030F00070080319D52842
:1001200000302606031D962801302506031DD5281C
:1001300023082107F00022080318013F2407F100DB
:100140002708F00728080318013FF107290870075E
:10015000F40071080318013F2A07F5000030750606
:10016000031DB42800307406031DD5288A15B92252
:100170008A118A15B4228A11FF30DE008A152821DF
:100180008A11FF30DE008A1592218A110D30FB00A2
:10019000FF30FA00FB0BCD28D028FA0BCD28CA2857
:1001A000F330FA00FA0BD22800003508F0008A1567
:1001B00033228A113008F4003108F5003208F600C5
:1001C0003308F70036267008DA007108DB00720881
:1001D000DC007308DD005A08C0005B08C1005C0841
:1001E000C2005D08C3004408F0004508F10046085D
:1001F000F2004708F3003008F4003108F500320837
:10020000F6003308F700EE247008D2007108D3001E
:100210007208D4007308D5005208C4005308C50002
:100220005408C6005508C7003608F0008A15332266
:100230008A115208F4005308F5005408F6005508D6
:10024000F70036267008D2007108D3007208D40077
:100250007308D5005208C4005308C5005408C600EE
:100260005508C7002C08F4002D08F5002E08F600EC
:100270002F08F7003008F0003108F1003208F200D2
:100280003308F3008A1581228A117008D60071089C
:10029000D7007208D8007308D9005608C80057085C
:1002A000C9005808CA005908CB005A08F0005B087A
:1002B000F1005C08F2005D08F3005208F4005308F6
:1002C000F5005408F6005508F700EE247008D20037
:1002D0007108D3007208D4007308D5003708F00005
:1002E0008A1533228A115608F4005708F500580879
:1002F000F6005908F70036265208F4005308F500B6
:100300005408F6005508F700EE247008D60071086E
:10031000D7007208D8007308D9005608CC005708D7
:10032000CD005808CE005908CF003408F0008A15D7
:1003300033228A117008D2007108D3007208D400E9
:100340007308D5005208F0005308F1005408F20079
:100350005508F3005608F4005708F5005808F60051
:100360005908F700EE247008B8007108B900720847
:10037000BA007308BB005608F4005708F500580887
:10038000F6005908F7005208F0005308F10054082D
:10039000F2005508F3008A1581228A117008BC000A
:1003A0007108BD007208BE007308BF008A15B42230
:1003B0008A118A15B9228A113C08F4003D08F5001B
:1003C0003E08F6003F08F7000030F0000030F10072
:1003D0007F30F2008630F3008A1500208A11013048
:1003E00003180030F00070080319FE290030BC002B
:1003F0000030BD007F30BE008630BF003808F400FA
:100400003908F5003A08F6003B08F7000030F00024
:100410000030F1007F30F2008630F3008A150020B2
:100420008A11013003180030F00070080319202AE7
:100430000030B8000030B9007F30BA008630BB0011
:10044000F401F501F601F7013C08F0003D08F10068
:100450003E08F2003F08F3008A1500208A1101309F
:1004600003180030F000700803193A2ABC01BD01DE
:10047000BE01BF01F401F501F601F7013808F000F3
:100480003908F1003A08F2003B08F3008A15002011
:100490008A11013003180030F00070080319542A43
:1004A000B801B901BA01BB013808F0003908F10000
:1004B0003A08F2003B08F3008A15E5208A1170081B
:1004C000DE008A1528218A113C08F0003D08F10061
:1004D0003E08F2003F08F3008A15E5208A117008F3
:1004E000DE008A1592218A110030061B0130F400CB
:1004F0007408003A031DAB2AD001D101003051022B
:10050000031D842A3C3050020318AB2A7530AB001F
:100510008A15B4228A118A15C3228A11FF30DE009F
:100520008A1528218A11FF30DE008A1592218A114E
:100530000D30FB00FF30FA00FB0B9F2AA22AFA0BBA
:100540009F2A9C2AF330FA00FA0BA42A0000D00A52
:100550000319D10A7E2A23082107F0002208031874
:10056000013F2407F1002508F00726080318013F82
:10057000F1072708F00728080318013FF1072908A9
:100580007007F40071080318013F2A07F5000030D6
:100590007506031DCD2A05307406031D3D2B003062
:1005A00005190130F4007408013A031D062BD0012F
:1005B000D10100305102031DDF2A1430500203180C
:1005C000062B7530AB008A15BE228A118A15B92216
:1005D0008A11FF30DE008A1528218A11FF30DE00E3
:1005E0008A1592218A110D30FB00FF30FA00FB0BB7
:1005F000FA2AFD2AFA0BFA2AF72AF330FA00FA0B44
:10060000FF2A0000D00A0319D10AD92A003089181C
:100610000130F4007408013A031D3D2BD001D101D3
:1006200000305102031D162B1430500203183D2BCD
:100630007530AB008A15B4228A118A15C3228A113B
:10064000FF30DE008A1528218A11FF30DE008A156E
:1006500092218A110D30FB00FF30FA00FB0B312B89
:10066000342BFA0B312B2E2BF330FA00FA0B362BEE
:100670000000D00A0319D10A102B0030861B01306C
:10068000F4007408003A031D812B003089180130F2
:10069000F4007408013A0319542B01300505F400E5
:1006A0007408013A031D812BD001D10100305102A1
:1006B000031D5C2B0A3050020318812B8A15B922C6
:1006C0008A118A15B4228A11FF30DE008A1528218A
:1006D0008A11FF30DE008A1592218A110D30FB004D
:1006E000FF30FA00FB0B752B782BFA0B752B722B56
:1006F000F330FA00FA0B7A2B0000D00A0319D10A62
:10070000562B0030061B0130F4007408013A031D1B
:10071000BF2B01300505F4007408013A031DBF2BFF
:10072000D001D10100305102031D982B0A30500234
:100730000318BF2B7530AB008A15BE228A118A15AB
:10074000B9228A11FF30DE008A1528218A11FF3074
:10075000DE008A1592218A110D30FB00FF30FA006D
:10076000FB0BB32BB62BFA0BB32BB02BF330FA00E9
:10077000FA0BB82B0000D00A0319D10A922B0030D3
:10078000861B0130F4007408013A031DFE2B003073
:1007900089180130F4007408013A031DFE2BD001C2
:1007A000D10100305102031DD72B0A30500203182B
:1007B000FE2B7530AB008A15C3228A118A15B4222C
:1007C0008A11FF30DE008A1528218A11FF30DE00F1
:1007D0008A1592218A110D30FB00FF30FA00FB0BC5
:1007E000F22BF52BFA0BF22BEF2BF330FA00FA0B6E
:1007F000F72B0000D00A0319D10AD12B0D30FB00D2
:10080000FF30FA00FB0B052C082CFA0B052C022CF0
:10081000F330FA00FA0B0A2C00000D280E2C0313FB
:100820008312A101A201A301A401A501A601A701B0
:10083000A801A901AA01051D232C7230AB000130CB
:10084000A1000030A200851D292C0130A30000303A
:10085000A400051E2F2C0130A5000030A600851E27
:10086000352C0130A7000030A800091C3D2C6C304D
:10087000AB000130A9000030AA003008AC003108FC
:10088000AD003208AE003308AF000130F400230899
:10089000F0002408F10074080319532CF00DF10D39
:1008A0007010FF3F4C2C70082107DE00220803184F
:1008B000013F7107DF002508F0002608F100033032
:1008C000F4000030F5008A15CB218A117008DE078C
:1008D00071080318013FDF070230F4002708F00019
:1008E0002808F100740803197A2CF00DF10D70102E
:1008F000FF3F732C7008DE0771080318013FDF0704
:100900002908F0002A08F1000530F4000030F50055
:100910008A15CB218A115E08F0075F080318013F92
:10092000F1078A1507228A117008DE007108DF00BE
:100930007208E0007308E1005E08B0005F08B100D3
:100940006008B2006108B30023082107F000220804
:100950000318013F2407F1002508F00726080318B3
:10096000013FF1072708F00728080318013FF107A6
:100970002908F0072A080318013FF1078A15072202
:100980008A117008F4007108F5007208F600730807
:10099000F7005E08F0005F08F1006008F2006108EF
:1009A000F30092257008B0007108B1007208B2001F
:1009B0007308B3000030F4000030F5004030F6005A
:1009C0008030F7008A1581228A117008B000710802
:1009D000B1007208B2007308B30008000313831259
:1009E00072087606A000F801F90173087702031C6B
:1009F000112D7708FD007308F7007D08F3007608D5
:100A0000FD007208F6007D08F2007508FD0071080F
:100A1000F5007D08F1007408FD007008F4007D0801
:100A2000F000770803198E2D7208FA00F217F617F6
:100A300077087302F7000319442D08307702031C6E
:100A40003A2DF7007408F9007508F4007608F500EF
:100A5000F60108307702031C3A2DF7007408F900FC
:100A60007508F400F50108307702031C3A2D7A0866
:100A7000F2008E2D77080319442D0310F60CF50CA7
:100A8000F40CF90CF70B3D2DA01F512DF909F409B9
:100A9000F509F609F90A0319F40A0319F50A031905
:100AA000F60A7908F80774080318740FF007750838
:100AB0000318750FF10776080318760FF207A01BCD
:100AC0006A2D031C7A2DF20CF10CF00CF80CF30FCC
:100AD0007A2D882D03187E2DF809F009F109F20905
:100AE000F80A0319F00A0319F10A0319F20A80300F
:100AF000FA06822D0130FC009D26902D0230FC006C
:100B00009D26902D0430FC008A1561218A11902DBC
:100B10000830FC008A1565228A11902D0030FC00F7
:100B2000000008000313831277080319212E7308AD
:100B30000319262E720876068039FA00F217F61786
:100B4000A0017208F8007108FC007008FD0074082C
:100B5000FD027508031C750FFC027608031C760F56
:100B6000F802F801FC01FD01031CBD2D0310F20C7D
:100B7000F10CF00CF80C0130A0007708F302031C14
:100B8000C72D7E302007F30703182B2ECC2D7E3087
:100B90002007F307031C302E1830FA07FD0DFC0D5B
:100BA000F80DF00DF10DF20DA00D7408F0027508AE
:100BB000031C750FF1027608031C760FF202760D06
:100BC000A004201CE52D7D14F02D7408F007750895
:100BD0000318750FF10776080318760AF2077D10DF
:100BE000FA031F307A05031DCE2D7B1B7D1C172EAB
:100BF0000310F00DF10DF20DA00D7408F002750850
:100C0000031C750FF1027608031C760FF202760DB5
:100C100020040139FD070318FC0A0319F80A031D13
:100C2000172EF80CFC0CFD0CF30A03192B2EFA1FDF
:100C3000F8137808F2007C08F1007D08F00000301D
:100C4000342E01308A15C8228A11342E02308A15BA
:100C500089228A11342E04308A1565228A11342E95
:100C600008308A1573228A110000080003138312CA
:100C7000FB017308031D770803198D2E7208760691
:100C8000FA007708F3077E30031C4A2EF30203189C
:100C9000922E4D2EF302031C972E7208F800710855
:100CA000FC007008FD00F817F6170310F201F101BF
:100CB000F0011830A0007D1C672E7408F00775083D
:100CC0000318750FF10776080318760FF207F20C78
:100CD000F10CF00CF80CFC0CFD0C0310A00B5B2EBF
:100CE000F21B772EF80DF00DF10DF20DF3037B1BC7
:100CF000701C892EF81F892EF00A0319F10A0319B6
:100D0000F20A031D892EF20CF10CF00CF30A031900
:100D1000922EFA1FF21300309B2E01308A15892281
:100D20008A119B2E02308A1565228A119B2E04306F
:100D30008A1573228A1100000800031383127C189D
:100D4000D52EFC18A62E7C19FA2E9F2EA001720813
:100D5000031DC62E7108F2007008F1007808F0003B
:100D6000F801A0157208031DC62E7108F200700864
:100D7000F100F001A01120167208031DC62E7108A3
:100D8000F200F101A01572080319E82E2008F30201
:100D9000031D031CEE2E0310F21BD52EF80DF00DD3
:100DA000F10DF20DF30BCC2EEE2E7B1B701CF42EEE
:100DB000F81FF42EF00A0319F10A0319F20A031DB1
:100DC000F42EF20CF10CF00CF30A0319FA2EF42EA7
:100DD0000130FC008A1589228A11FF2E0230FC00A6
:100DE0008A1573228A11FF2E0430FC008A15A8226E
:100DF0008A11FF2E0830FC008A1565228A11000036
:100E000008000313831288130813003005190130FA
:100E1000F1000030711820300806203988060030B3
:100E200085190130F10000307118103008061039B2
:100E300088060030051A0130F100003071180830C2
:100E40000806083988060030851A0130F1000030A4
:100E50007118043008060439880601300905F000CD
:100E600000307018023008060239880608100800A1
:100E7000FF3FFF3FFF3FFF3FFF3FFF3FFF3FFF3F82
:100E8000FF3FFF3FFF3FFF3FFF3FFF3FFF3FFF3F72
:100E9000FF3FFF3FFF3FFF3FFF3FFF3FFF3FFF3F62
:100EA000FF3FFF3FFF3FFF3FFF3FFF3FFF3FFF3F52
:100EB000FF3FFF3FFF3FFF3FFF3FFF3FFF3FFF3F42
:100EC000FF3FFF3FFF3FFF3FFF3FFF3FFF3FFF3F32
:100ED000FF3FFF3FFF3FFF3FFF3FFF3FFF3FFF3F22
:100EE000FF3FFF3FFF3FFF3FFF3FFF3FFF3FFF3F12
:100EF000FF3FFF3FFF3FFF3FFF3FFF3FFF3FFF3F02
:100F0000FF3FFF3FFF3FFF3FFF3FFF3FFF3FFF3FF1
:100F1000FF3FFF3FFF3FFF3FFF3FFF3FFF3FFF3FE1
:100F2000FF3FFF3FFF3FFF3FFF3FFF3FFF3FFF3FD1
:100F3000FF3FFF3FFF3FFF3FFF3FFF3FFF3FFF3FC1
:100F4000FF3FFF3FFF3FFF3FFF3FFF3FFF3FFF3FB1
:100F5000FF3FFF3FFF3FFF3FFF3FFF3FFF3FFF3FA1
:100F6000FF3FFF3FFF3FFF3FFF3FFF3FFF3FFF3F91
:100F7000FF3FFF3FFF3FFF3FFF3FFF3FFF3FFF3F81
:100F8000FF3FFF3FFF3FFF3FFF3FFF3FFF3FFF3F71
:100F9000FF3FFF3FFF3FFF3FFF3FFF3FFF3FFF3F61
:100FA000FF3FFF3FFF3FFF3FFF3FFF3FFF3FFF3F51
:100FB000FF3FFF3FFF3FFF3FFF3FFF3FFF3FFF3F41
:100FC000FF3FFF3FFF3FFF3FFF3FFF3FFF3FFF3F31
:100FD000FF3FFF3FFF3FFF3FFF3FFF3FFF3FFF3F21
:100FE000FF3FFF3FFF3FFF3FFF3FFF3FFF3FFF3F11
:100FF000FF3FFF3FFF3FFF3FFF3FFF3FFF3FFF3F01
:1010000003138312FA017308031D7A147708031D72
:10101000FA147A0803194C28033A031917287A1886
:101020001428F61F4A284828F21F48284A28720820
:101030008039FA00F21376088039F6137A0603191C
:1010400025287A08031948284A28770873020319C3
:101050002C28031C402844287608720203193328E0
:10106000031C402844287508710203193A28031C00
:10107000402844287408700203194C280318442897
:10108000FA0803194A284828FA08031948284A2860
:1010900003140800031008000314031508000800D7
:1010A000BE3003138312B4000530B5000830B6001B
:1010B0000430B7000030B8000030B9000030BA008A
:1010C0000030BB000030BC000030BD000030BE006E
:1010D0000030BF000030AC000030AD000030AE008A
:1010E0000030AF000030B0000030B1000030B2007E
:1010F0000030B3000030C0000030C1000030C2003A
:101100000030C3000030C4000030C5000030C6000D
:101110000030C7000030C8000030C9000030CA00ED
:101120000030CB000030CC000030CD000030CE00CD
:101130000030CF00080003138312FB01FA01F9010C
:101140008030F800FD01F11FAB28F109F009F00A29
:101150000319F10AFD0AF51FB328F509F409F40A89
:101160000319F50AFD0AF10CF00C031CC0287408E1
:10117000F90775080318750FFA070318FB0A03101F
:10118000F01FC8287408FA070318FB0A7508FB0744
:10119000FB0CFA0CF90CF80C031CB3287D1CDB28A3
:1011A000FB09FA09F909F809F80A0319F90A0319F8
:1011B000FA0A0319FB0A7B08F3007A08F20079089F
:1011C000F1007808F0000000080003138312FB010F
:1011D000FC01FA01730803191229FA13F217863079
:1011E000F302F31BF6280319F6281429F309F30A6E
:1011F00008307302031C0329F300F20DF201730897
:10120000031D03100A29730803190A290310F20C9D
:10121000F30B06297B1B721C1229031C1229F20AEC
:1012200003191929F1011C297B14FB1F1F29F10146
:101230001F290130FC0021290030FC002129FF304A
:10124000FC00FC080319252956227208F00008004A
:10125000031383161208013FF000F1010318F10A8D
:1012600083125E08F400F5019B200630F20070083E
:10127000F4007108F500720803194329F50CF40C09
:10128000F513FF3F3C297408F000F00D7010F00DCD
:101290007010F00D7010F00D701030307005F3000C
:1012A0007408F0007508F100F10CF00CF113F10C6A
:1012B000F00CF113700895000F3097057308970430
:1012C000080003138312A0017208031D7829710816
:1012D000F2007008F100F001A0157208031D7829D2
:1012E0007108F200F101A011201672080319862975
:1012F0002008F302031D031C8A290310F21B8E2908
:10130000F00DF10DF20DF30B7E298A290130FC005E
:10131000892291290230FC00732291290430FC00BB
:10132000A8220800031383161208013FF000F10100
:101330000318F10A83125E08F400F5019B200630C1
:10134000F2007008F4007108F50072080319AD2965
:10135000F50CF40CF513FF3FA6297408F000F00D0E
:101360007010F00D7010F00D7010F00D7010303026
:101370007005F3007408F0007508F100F10CF00C32
:10138000F113F10CF00CF11370089B000F309D0568
:1013900073089D04080003138312FB01FA01F9018D
:1013A0008030F800F10CF00C031CDF297408F907F9
:1013B00075080318750FFA070318FB0A0310F01FCE
:1013C000E7297408FA0775080318750FFB07FB0C6B
:1013D000FA0CF90CF80C031CD2297B08F3007A08EC
:1013E000F2007908F1007808F00008000313831276
:1013F00012109210C73083169200AE221210921073
:10140000C73083169200A22292229A220800031368
:1014100083127008F8007108F000F101F201F30185
:10142000FB01FC019630F300FA017008F100780826
:10143000F000F801F2016121080003138312730820
:101440007706031D302A72087606031D302A7108BC
:101450007506031D302A7008740603190315080069
:10146000031108000800031383127008F800FB0141
:10147000FC019E30F300FA01F201F101F0010230AB
:10148000FC008A119D268A15080006300313831676
:101490009F008312850189013F3083168500033048
:1014A000890088018701C030860008000313831279
:1014B0007B14FB1F632AF201FA1FFF30F200F100D8
:1014C000F000FA0DF20CFF30080003138312FB1436
:1014D000FB1F712AFF30F300F200F100F000FA0D5B
:1014E000F20CFF300800031383127B15FB1F7F2AC9
:1014F0000130F300F201F101F001FA0DF20CFF30BE
:101500000800031383128030F6068A11EE248A1530
:10151000080003138312F201F101F001F801F30155
:1015200000300800031383160711831212150C30C4
:1015300097040800031383168710831212150C30CA
:101540009D040800031383129B011D129D120800C5
:1015500003138312FA1FF2130030080003138312DF
:1015600095011712971208000313831287170713A8
:10157000080003138312871607120800031383124F
:101580008713071708000313831287120716080032
:1015900003138312FB15FF300800FF3FFF3FFF3F9F
:02400E007A3FF7
:00000001FF
