:100000000428FF3FFF3FFF3F8A1512218A118A15FE
:100010006C238A118A1510238A118A15C1208A112E
:100020004224F401F501F601F7013108F00032082D
:10003000F1003308F2003408F3008A1537238A11DF
:100040000130031D0030F0007008031981282908D1
:100050002707F40028080318013F2A07F50000309D
:100060007506031D352802307406031D81282308F8
:100070002107F00022080318013F2407F10025089A
:10008000F00726080318013FF1072B08F0072C089A
:100090000318013FF1072D08F0072E080318013F50
:1000A000F1072F087007F40071080318013F3007AB
:1000B000F50000307506031D5F2800307406031D2F
:1000C00081288A15AF238A118A15D9238A11FF3016
:1000D000E5008A1579228A11FF30E5008A15402251
:1000E0008A110730FB00FF30FA00FB0B78287B28D1
:1000F000FA0B782875287830FA00FA0B7D28000072
:10010000000023082107F00022080318013F2407FC
:10011000F1002508F00726080318013FF10727081A
:10012000F00728080318013FF1072908F0072A08FB
:100130000318013FF1072B08F0072C080318013FB3
:10014000F1072D08F0072E080318013FF1072F08CB
:100150007007F40071080318013F3007F500003004
:100160007506031DB52800307406031D01293508E6
:10017000723A031DDC288A15B6238A118A15AF232B
:100180008A11FF30E5008A1579228A11FF30E500D7
:100190008A1540228A110730FB00FF30FA00FB0B62
:1001A000D228D528FA0BD228CF287830FA00FA0BBB
:1001B000D72800000000002935086C3A031D0029EB
:1001C0008A15CF238A118A15D9238A11FF30E500B9
:1001D0008A1579228A11FF30E5008A1540228A119A
:1001E0000730FB00FF30FA00FB0BF728FA28FA0B68
:1001F000F728F4287830FA00FA0BFC2800000000F9
:10020000302C0030F4000030F5000030F6007F3074
:10021000F7003108F0003208F1003308F20034082A
:10022000F3008A1563218A110130031C0030F000AD
:100230007008031D69293108F4003208F5003308FD
:10024000F6003408F7000030F0000030F100003014
:10025000F2008130F3008A1563218A110130031CFA
:100260000030F0007008031D69290030F4000030F0
:10027000F5008030F6007F30F7003108F0003208DA
:10028000F1003308F2003408F3008A1563218A1163
:100290000130031C0030F0007008031D692931088B
:1002A000F4003208F5003308F6003408F700003097
:1002B000F0000030F1008030F2008130F3008A1548
:1002C00063218A110130031C0030F000700803190B
:1002D000772A3B08F0008A154D238A113108F40073
:1002E0003208F5003308F6003408F7008A150020BC
:1002F0008A117008E1007108E2007208E3007308D7
:10030000E4006108C9006208CA006308CB00640801
:10031000CC004D08F0004E08F1004F08F2005008E4
:10032000F3003108F4003208F5003308F600340811
:10033000F700F6257008D9007108DA007208DB00B2
:100340007308DC005908CD005A08CE005B08CF00C6
:100350005C08D0003C08F0008A154D238A1159082A
:10036000F4005A08F5005B08F6005C08F7008A15EF
:1003700000208A117008D9007108DA007208DB00C9
:100380007308DC005908CD005A08CE005B08CF0086
:100390005C08D0003608F4003708F5003808F6008D
:1003A0003908F7003108F0003208F1003308F20094
:1003B0003408F3008A1597238A117008DD0071084C
:1003C000DE007208DF007308E0005D08D1005E08FF
:1003D000D2005F08D3006008D4006108F000620812
:1003E000F1006308F2006408F3005908F4005A08A9
:1003F000F5005B08F6005C08F700F6257008D900E8
:100400007108DA007208DB007308DC003D08F000B8
:100410008A154D238A115D08F4005E08F5005F0817
:10042000F6006008F7008A1500208A115908F400C8
:100430005A08F5005B08F6005C08F700F62570081E
:10044000DD007108DE007208DF007308E0005D085F
:10045000D5005E08D6005F08D7006008D8003A08CB
:10046000F0008A154D238A117008D9007108DA004E
:100470007208DB007308DC005D08F4005E08F5001C
:100480005F08F6006008F7005908F0005A08F1000C
:100490005B08F2005C08F3008A1597238A11700844
:1004A000C1007108C2007208C3007308C400590873
:1004B000F0005A08F1005B08F2005C08F3005D08E8
:1004C000F4005E08F5005F08F6006008F700F62506
:1004D0007008C5007108C6007208C7007308C8001C
:1004E0008A15D9238A118A15AF238A11982B0030D7
:1004F0003106DD0000303206DE0080303306DF00DA
:1005000000303406E0005D08B1005E08B2005F080C
:10051000B3006008B4003E08F0008A154D238A112C
:100520005D08F4005E08F5005F08F6006008F7005B
:100530008A1500208A117008E1007108E200720833
:10054000E3007308E4006108C9006208CA00630898
:10055000CB006408CC004D08F0004E08F1004F08B5
:10056000F2005008F3005D08F4005E08F5005F0833
:10057000F6006008F700F6257008D9007108DA0067
:100580007208DB007308DC005908CD005A08CE0061
:100590005B08CF005C08D0003F08F0008A154D23AF
:1005A0008A115908F4005A08F5005B08F6005C0847
:1005B000F7008A1500208A117008D9007108DA0046
:1005C0007208DB007308DC005908CD005A08CE0021
:1005D0005B08CF005C08D0003608F4003708F5004F
:1005E0003808F6003908F7005D08F0005E08F100F1
:1005F0005F08F2006008F3008A1597238A117008DB
:10060000DD007108DE007208DF007308E0005D089D
:10061000D1005E08D2005F08D3006008D4006108F2
:10062000F0006208F1006308F2006408F300590862
:10063000F4005A08F5005B08F6005C08F700F625A0
:100640007008D9007108DA007208DB007308DC005A
:100650004008F0008A154D238A115D08F4005E08F9
:10066000F5005F08F6006008F7008A1500208A117F
:100670005908F4005A08F5005B08F6005C08F7001A
:10068000F6257008DD007108DE007208DF007308CF
:10069000E0005D08D5005E08D6005F08D70060085E
:1006A000D8003A08F0008A154D238A117008D90045
:1006B0007108DA007208DB007308DC005D08F400E2
:1006C0005E08F5005F08F6006008F7005908F000C2
:1006D0005A08F1005B08F2005C08F3008A159723C2
:1006E0008A117008C1007108C2007208C300730843
:1006F000C4005908F0005A08F1005B08F2005C08D9
:10070000F3005D08F4005E08F5005F08F60060087D
:10071000F700F6257008C5007108C6007208C7000A
:100720007308C8008A15D9238A118A15AF238A1144
:100730004508F4004608F5004708F6004808F700A9
:100740000030F0000030F1007F30F2008630F3001E
:100750008A1563218A11013003180030F0007008F7
:100760000319BA2B0030C5000030C6007F30C70027
:100770008630C8004108F4004208F5004308F6003E
:100780004408F7000030F0000030F1007F30F20044
:100790008630F3008A1563218A1101300318003076
:1007A000F00070080319DC2B0030C1000030C200DB
:1007B0007F30C3008630C400F401F501F601F70173
:1007C0004508F0004608F1004708F2004808F30029
:1007D0008A1563218A11013003180030F000700877
:1007E0000319F62BC501C601C701C801F401F501C3
:1007F000F601F7014108F0004208F1004308F20059
:100800004408F3008A1563218A110130031800306F
:10081000F00070080319102CC101C201C301C4010A
:100820004108F0004208F1004308F2004408F300D8
:100830008A15FD218A117008E5008A1579228A112E
:100840004508F0004608F1004708F2004808F300A8
:100850008A15FD218A117008E5008A1540228A1147
:100860000730FB00FF30FA00FB0B372C3A2CFA0B59
:10087000372C342C7830FA00FA0B3C2C00000000A6
:100880000D28412C03138312A101A201A301A4018D
:10089000A501A601A701A801A901AA01AB01AC010C
:1008A000AD01AE01AF01B0010030F4000030F50041
:1008B0000030F6007F30F7003108F0003208F10018
:1008C0003308F2003408F3008A1563218A110130DD
:1008D000031C0030F0007008031DBC2C3108F4002C
:1008E0003208F5003308F6003408F7000030F00055
:1008F0000030F1000030F2008130F3008A156321EE
:100900008A110130031C0030F0007008031DBC2C5C
:100910000030F4000030F5008030F6007F30F70042
:100920003108F0003208F1003308F2003408F30017
:100930008A1563218A110130031C0030F000700811
:10094000031DBC2C3108F4003208F5003308F60012
:100950003408F7000030F0000030F1008030F20081
:100960008130F3008A1563218A110130031C0030A5
:10097000F00070080319F12C051CC42C7230B5006E
:100980000130A1000030A200851CCA2C0130A30058
:100990000030A400051DD02C0130A5000030A600B9
:1009A000851DD62C0130A7000030A800051EDC2CC8
:1009B0000130A9000030AA00851EE22C0130AB00F6
:1009C0000030AC00091CE82C0130AD000030AE0056
:1009D000891CF02C6C30B5000130AF000030B00045
:1009E000FD2C051CF72C7230B500A101A201891C59
:1009F000FD2C6C30B500AF01B0013108B6003208F3
:100A0000B7003308B8003408B9000130F4002308F7
:100A1000F0002408F10074080319132DF00DF10DF6
:100A20007010FF3F0C2D70082107E5002208031805
:100A3000013F7107E6002508F0002608F1000330A9
:100A4000F4000030F5008A15E5228A117008E507E8
:100A500071080318013FE6070230F4002708F00090
:100A60002808F100740803193A2DF00DF10D7010EB
:100A7000FF3F332D7008E50771080318013FE607B3
:100A80002908F0002A08F1000530F4000030F500D4
:100A90008A15E5228A117008E50771080318013FDD
:100AA000E6072B08F0002C08F1000630F4000030B7
:100AB000F5008A15E5228A117008E5077108031808
:100AC000013FE6072D08F0002E08F1000730F40082
:100AD0000030F5008A15E5228A117008E5077108D3
:100AE0000318013FE6070330F4002F08F000300838
:100AF000F10074080319812DF00DF10D7010FF3F06
:100B00007A2D6508F00766080318013FF1078A157A
:100B100021238A117008E5007108E6007208E700D9
:100B20007308E8006508B1006608B2006708B30002
:100B30006808B40023082107F00022080318013FC9
:100B40002407F1002508F00726080318013FF107E4
:100B50002708F00728080318013FF1072908F007C4
:100B60002A080318013FF1072B08F0072C08031887
:100B7000013FF1072D08F0072E080318013FF10788
:100B80002F08F00730080318013FF1078A152123C9
:100B90008A117008F4007108F5007208F6007308F5
:100BA000F7006508F0006608F1006708F2006808C1
:100BB000F3009E267008B1007108B2007208B300FD
:100BC0007308B4000030F4000030F5001030F60077
:100BD0008130F7008A1597238A117008B1007108D7
:100BE000B2007208B3007308B40008000313831244
:100BF00072087606A000F801F90173087702031C59
:100C0000192E7708FD007308F7007D08F3007608B9
:100C1000FD007208F6007D08F2007508FD007108FD
:100C2000F5007D08F1007408FD007008F4007D08EF
:100C3000F000770803199A2E7208FA00F217F617D7
:100C400077087302F70003194C2E08307702031C53
:100C5000422EF7007408F9007508F4007608F500D4
:100C6000F60108307702031C422EF7007408F900E1
:100C70007508F400F50108307702031C422E7A084B
:100C8000F2009A2E770803194C2E0310F60CF50C7F
:100C9000F40CF90CF70B452EA01F592EF909F40995
:100CA000F509F609F90A0319F40A0319F50A0319F3
:100CB000F60A7908F80774080318740FF007750826
:100CC0000318750FF10776080318760FF207A01BBB
:100CD000722E031C822EF20CF10CF00CF80CF30FA8
:100CE000822E942E0318882EF809F009F109F209D2
:100CF000F80A0319F00A0319F10A0319F20A8030FD
:100D0000FA068E2E0130FC008A1563208A119C2E73
:100D10000230FC008A1563208A119C2E0430FC00EE
:100D20008A15B2228A119C2E0830FC008A157B237A
:100D30008A119C2E0030FC0000000800031383126F
:100D4000770803192D2F73080319322F72087606BE
:100D50008039FA00F217F617A0017208F80071083E
:100D6000FC007008FD007408FD027508031C750F77
:100D7000FC027608031C760FF802F801FC01FD0165
:100D8000031CC92E0310F20CF10CF00CF80C01300E
:100D9000A0007708F302031CD32E7E302007F30750
:100DA0000318352FD82E7E302007F307031C3A2F67
:100DB0001830FA07FD0DFC0DF80DF00DF10DF20DD8
:100DC000A00D7408F0027508031C750FF102760877
:100DD000031C760FF202760DA004201CF12E7D1468
:100DE000FC2E7408F00775080318750FF1077608D4
:100DF0000318760AF2077D10FA031F307A05031DE7
:100E0000DA2E7B1B7D1C232F0310F00DF10DF20D4C
:100E1000A00D7408F0027508031C750FF102760826
:100E2000031C760FF202760D20040139FD0703182A
:100E3000FC0A0319F80A031D232FF80CFC0CFD0C07
:100E4000F30A0319352FFA1FF8137808F2007C080B
:100E5000F1007D08F00000303E2F01308A15D423C8
:100E60008A113E2F023040273E2F04308A157B2303
:100E70008A113E2F08308A1589238A110000080044
:100E800003138312F201F101F001F801F3010030C4
:100E90000800FF3FFF3FFF3FFF3FFF3FFF3FFF3F98
:100EA000FF3FFF3FFF3FFF3FFF3FFF3FFF3FFF3F52
:100EB000FF3FFF3FFF3FFF3FFF3FFF3FFF3FFF3F42
:100EC000FF3FFF3FFF3FFF3FFF3FFF3FFF3FFF3F32
:100ED000FF3FFF3FFF3FFF3FFF3FFF3FFF3FFF3F22
:100EE000FF3FFF3FFF3FFF3FFF3FFF3FFF3FFF3F12
:100EF000FF3FFF3FFF3FFF3FFF3FFF3FFF3FFF3F02
:100F0000FF3FFF3FFF3FFF3FFF3FFF3FFF3FFF3FF1
:100F1000FF3FFF3FFF3FFF3FFF3FFF3FFF3FFF3FE1
:100F2000FF3FFF3FFF3FFF3FFF3FFF3FFF3FFF3FD1
:100F3000FF3FFF3FFF3FFF3FFF3FFF3FFF3FFF3FC1
:100F4000FF3FFF3FFF3FFF3FFF3FFF3FFF3FFF3FB1
:100F5000FF3FFF3FFF3FFF3FFF3FFF3FFF3FFF3FA1
:100F6000FF3FFF3FFF3FFF3FFF3FFF3FFF3FFF3F91
:100F7000FF3FFF3FFF3FFF3FFF3FFF3FFF3FFF3F81
:100F8000FF3FFF3FFF3FFF3FFF3FFF3FFF3FFF3F71
:100F9000FF3FFF3FFF3FFF3FFF3FFF3FFF3FFF3F61
:100FA000FF3FFF3FFF3FFF3FFF3FFF3FFF3FFF3F51
:100FB000FF3FFF3FFF3FFF3FFF3FFF3FFF3FFF3F41
:100FC000FF3FFF3FFF3FFF3FFF3FFF3FFF3FFF3F31
:100FD000FF3FFF3FFF3FFF3FFF3FFF3FFF3FFF3F21
:100FE000FF3FFF3FFF3FFF3FFF3FFF3FFF3FFF3F11
:100FF000FF3FFF3FFF3FFF3FFF3FFF3FFF3FFF3F01
:1010000003138312FB017308031D77080319572884
:1010100072087606FA007708F3077E30031C14285E
:10102000F30203185C281728F302031C5F287208D8
:10103000F8007108FC007008FD00F817F61703109F
:10104000F201F101F0011830A0007D1C3128740874
:10105000F00775080318750FF10776080318760F67
:10106000F207F20CF10CF00CF80CFC0CFD0C031068
:10107000A00B2528F21B4128F80DF00DF10DF20D03
:10108000F3037B1B701C5328F81F5328F00A031925
:10109000F10A0319F20A031D5328F20CF10CF00CAB
:1010A000F30A03195C28FA1FF2130030612801309B
:1010B0008A1140278A15612802307B236128043079
:1010C000892300000800031383127C189B28FC1856
:1010D0006C287C19BC286528A0017208031D8C2887
:1010E0007108F2007008F1007808F000F801A0150E
:1010F0007208031D8C287108F2007008F100F001DD
:10110000A01120167208031D8C287108F200F1014D
:10111000A01572080319AE282008F302031D031C52
:10112000B4280310F21B9B28F80DF00DF10DF20D01
:10113000F30B9228B4287B1B701CB828F81FB82822
:10114000F00A0319F10A0319F20A031DB828F20C78
:10115000F10CF00CF30A0319BC28B8280130FC008C
:101160008A1140278A15BF280230FC008923BF2836
:101170000430FC00C323BF280830FC007B230000A0
:1011800008000130031383120505F00000307018C9
:101190000130080601398806003085180130F10059
:1011A000003071180230080602398806003005192F
:1011B0000130F10000307118043008060439880647
:1011C000003085190130F100003071180830080630
:1011D000083988060030051A0130F1000030711816
:1011E00010300806103988060030851A0130F100E9
:1011F00000307118203008062039880601300905B2
:10120000F000003070184030080640398806003081
:1012100089180130F10000307118803008068039DB
:10122000880608003C3003138312BA005030BB001C
:101230003230BC000630BD000430BE00B430BF0008
:101240001430C0000030C1000030C2000030C300C4
:101250000030C4000030C5000030C6000030C700B8
:101260000030C8000030B6000030B7000030B800D1
:101270000030B9000030B1000030B2000030B300DF
:101280000030B4000030C9000030CA000030CB008C
:101290000030CC000030CD000030CE000030CF0058
:1012A0000030D0000030D1000030D2000030D30038
:1012B0000030D4000030D5000030D6000030D70018
:1012C0000030D800080003138312FA017308031DCD
:1012D0007A147708031DFA147A080319AF29033A20
:1012E00003197A297A187729F61FAD29AB29F21F3D
:1012F000AB29AD2972088039FA00F21376088039DB
:10130000F6137A06031988297A080319AB29AD293F
:101310007708730203198F29031CA329A7297608CC
:10132000720203199629031CA329A72975087102C3
:1013300003199D29031CA329A72974087002031906
:10134000AF290318A729FA080319AD29AB29FA0810
:101350000319AB29AD290314080003100800031476
:1013600003150800080003138312FB01FA01F901B9
:101370008030F800FD01F11FC329F109F009F00ADE
:101380000319F10AFD0AF51FCB29F509F409F40A3E
:101390000319F50AFD0AF10CF00C031CD829740896
:1013A000F90775080318750FFA070318FB0A0310ED
:1013B000F01FE0297408FA070318FB0A7508FB07F9
:1013C000FB0CFA0CF90CF80C031CCB297D1CF3293F
:1013D000FB09FA09F909F809F80A0319F90A0319C6
:1013E000FA0A0319FB0A7B08F3007A08F20079086D
:1013F000F1007808F0000000080003138312FB01DD
:10140000FC01FA01730803192A2AFA13F21786302D
:10141000F302F31B0E2A03190E2A2C2AF309F30AEE
:1014200008307302031C1B2AF300F20DF20173084B
:10143000031D0310222A73080319222A0310F20C39
:10144000F30B1E2A7B1B721C2A2A031C2A2AF20A6F
:101450000319312AF101342A7B14FB1F372AF101C9
:10146000372A0130FC00392A0030FC00392AFF30CD
:10147000FC00FC0803193D2A5D237208F0000800F7
:10148000031383161208013FF000F1010318F10A5B
:1014900083126508F400F501B3210630F2007008EC
:1014A000F4007108F500720803195B2AF50CF40CBE
:1014B000F513FF3F542A7408F000F00D7010F00D82
:1014C0007010F00D7010F00D701030307005F300DA
:1014D0007408F0007508F100F10CF00CF113F10C38
:1014E000F00CF11370089B000F309D0573089D04EC
:1014F0000800031383161208013FF000F1010318DE
:10150000F10A83126508F400F501B3210630F200F8
:101510007008F4007108F50072080319942AF50C9C
:10152000F40CF513FF3F8D2A7408F000F00D7010D5
:10153000F00D7010F00D7010F00D7010303070055F
:10154000F3007408F0007508F100F10CF00CF113D1
:10155000F10CF00CF113700895000F30970573082B
:101560009704080003138312A0017208031DC92AFF
:101570007108F2007008F100F001A0157208031D57
:10158000C92A7108F200F101A0112016720803198E
:10159000D72A2008F302031D031CDD2A0310F21BC7
:1015A000E12AF00DF10DF20DF30BCF2ADD2A013007
:1015B000FC008A1140278A15E42A0230FC008923A6
:1015C000E42A0430FC00C323080003138312FB0148
:1015D000FA01F9018030F800F10CF00C031CF92A33
:1015E0007408F90775080318750FFA070318FB0A42
:1015F0000310F01F012B7408FA0775080318750F04
:10160000FB07FB0CFA0CF90CF80C031CEC2A7B080A
:10161000F3007A08F2007908F1007808F000080079
:101620000313831212109210C73083169200C9233D
:1016300012109210C73083169200BD239F23A72358
:101640000800031383127008F8007108F000F1011C
:10165000F201F301FB01FC019630F300FA0170087E
:10166000F1007808F000F801F201B222080003133B
:10167000831273087706031D4A2B72087606031D32
:101680004A2B71087506031D4A2B7008740603194E
:1016900003150800031108000800031383127008E3
:1016A000F800FB01FC019E30F300FA01F201F101A8
:1016B000F0010230FC0063200800031383127B1446
:1016C000FB1F6A2BF201FA1FFF30F200F100F0005D
:1016D000FA0DF20CFF3008000630031383169F004A
:1016E0008312850189013F3083168500033089000C
:1016F00088018701080003138312FB14FB1F872B4B
:10170000FF30F300F200F100F000FA0DF20CFF30B0
:101710000800031383127B15FB1F952B0130F30088
:10172000F201F101F001FA0DF20CFF300800031391
:1017300083128030F6068A11F6258A1508000313F5
:1017400083160711831212150C3097040800031337
:1017500083168710831212150C309D0408000313A2
:101760008312871607126E30B50008000313831228
:10177000871307176E30B5000800031383129B010F
:101780001D129D12080003138312FA1FF21300307A
:101790000800031383129501171297120800031310
:1017A000831287120716080003138312FB15FF30FC
:1017B000080003138312871707130800FF3FFF3F3A
:02400E007A3FF7
:00000001FF
