:100000000428FF3FFF3FFF3FAD268A1566218A1176
:100010008A1515218A110C26BC22F401F501F6017E
:10002000F7013608F0003708F1003808F200390807
:10003000F3008A153E218A110130031D0030F000C3
:10004000700803197C2829082707F40028080318DA
:10005000013F2A07F50000307506031D31280230E4
:100060007406031D7C2823082107F00022080318CA
:10007000013F2407F1002508F00726080318013F77
:10008000F1072B08F0072C080318013FF1072D0892
:10009000F0072E080318013FF1072F087007F4003E
:1000A00071080318013F3007F50000307506031D85
:1000B0005B2800307406031D7C288A15D5218A111F
:1000C0008A15D0218A11FF30E7008A15AF208A11E6
:1000D000FF30E7008A1543208A110D30FB00FF3006
:1000E000FA00FB0B74287728FA0B74287128F33078
:1000F000FA00FA0B7928000023082107F0002208F3
:100100000318013F2407F1002508F007260803180B
:10011000013FF1072708F00728080318013FF107FE
:100120002908F0072A080318013FF1072B08F007F8
:100130002C080318013FF1072D08F0072E080318BB
:10014000013FF1072F087007F40071080318013F01
:100150003007F50000307506031DB0280030740626
:10016000031DFA283108723A031DD6288A15DA21B0
:100170008A118A15D5218A11FF30E7008A15AF2030
:100180008A11FF30E7008A1543208A110D30FB00E9
:10019000FF30FA00FB0BCD28D028FA0BCD28CA2857
:1001A000F330FA00FA0BD2280000F92831086C3A33
:1001B000031DF9288A15CB218A118A15D0218A11AD
:1001C000FF30E7008A15AF208A11FF30E7008A155B
:1001D00043208A110D30FB00FF30FA00FB0BF128A1
:1001E000F428FA0BF128EE28F330FA00FA0BF6287F
:1001F0000000AB2A3B08F0008A1554218A1136080A
:10020000F4003708F5003808F6003908F7004125F2
:100210007008E3007108E4007208E5007308E60066
:100220006308C7006408C8006508C9006608CA00FA
:100230004B08F0004C08F1004D08F2004E08F300A6
:100240003608F4003708F5003808F6003908F700DA
:10025000F9237008D7007108D8007208D900730814
:10026000DA005708CB005808CC005908CD005A08CE
:10027000CE003C08F0008A1554218A115708F4007A
:100280005808F5005908F6005A08F700412570088B
:10029000DF007108E0007208E1007308E2005F0807
:1002A000CB006008CC006108CD006208CE003208A7
:1002B000F4003308F5003408F6003508F700360876
:1002C000F0003708F1003808F2003908F30044273D
:1002D0007008D7007108D8007208D9007308DA00D6
:1002E0003E08F0008A1554218A117008F400710844
:1002F000F5007208F6007308F7005708F000580878
:10030000F1005908F2005A08F3009D247008DB0040
:100310007108DC007208DD007308DE005B08CF00A6
:100320005C08D0005D08D1005E08D2006308F000D0
:100330006408F1006508F2006608F3005F08F40045
:100340006008F5006108F6006208F700F9237008FC
:10035000D7007108D8007208D9007308DA003D0888
:10036000F0008A1554218A115B08F4005C08F5003E
:100370005D08F6005E08F70041255708F4005808AC
:10038000F5005908F6005A08F700F9237008DB0059
:100390007108DC007208DD007308DE005B08D30022
:1003A0005C08D4005D08D5005E08D6003A08F0006D
:1003B0008A1554218A117008D7007108D800720874
:1003C000D9007308DA005708F0005808F1005908FE
:1003D000F2005A08F3005B08F4005C08F5005D08C1
:1003E000F6005E08F700F9237008BF007108C0002E
:1003F0007208C1007308C2005B08F4005C08F500D5
:100400005D08F6005E08F7005708F0005808F10094
:100410005908F2005A08F30044277008C300710815
:10042000C4007208C5007308C6008A15D0218A115D
:100430008A15D5218A114308F4004408F5004508BF
:10044000F6004608F7000030F0000030F1007F3081
:10045000F2008630F3005D26013003180030F00012
:10046000700803193B2A0030C3000030C4007F30FD
:10047000C5008630C6003F08F4004008F50041087A
:10048000F6004208F7000030F0000030F1007F3045
:10049000F2008630F3005D26013003180030F000D2
:1004A000700803195B2A0030BF000030C0007F30A5
:1004B000C1008630C200F401F501F601F7014308DE
:1004C000F0004408F1004508F2004608F3005D26FC
:1004D000013003180030F00070080319732AC301BB
:1004E000C401C501C601F401F501F601F7013F0899
:1004F000F0004008F1004108F2004208F3005D26D8
:10050000013003180030F000700803198B2ABF0176
:10051000C001C101C2013F08F0004008F1004108DC
:10052000F2004208F3008A1500208A117008E700E3
:100530008A15AF208A114308F0004408F1004508ED
:10054000F2004608F3008A1500208A117008E700BF
:100550008A1543208A110D30FB00FF30FA00FB0B97
:10056000B22AB52AFA0BB22AAF2AF330FA00FA0BF4
:10057000B72A00000B28BB2A03138312A101A20192
:10058000A301A401A501A601A701A801A901AA012F
:10059000AB01AC01AD01AE01AF01B001051CD62A23
:1005A0007230B1000130A1000030A200851CDC2AAD
:1005B0000130A3000030A4000519E22A0130A50093
:1005C0000030A600851DE82A0130A7000030A800F1
:1005D000051EEE2A0130A9000030AA00851EF42A6B
:1005E0000130AB000030AC00091CFA2A0130AD002C
:1005F0000030AE00891C022B6C30B1000130AF001E
:100600000030B0003608B2003708B3003808B40034
:100610003908B5000130F4002308F0002408F10087
:1006200074080319182BF00DF10D7010FF3F112BFA
:1006300070082107E70022080318013F7107E8004E
:100640002508F0002608F1000330F4000030F50022
:100650008A15EA208A117008E70771080318013F1C
:10066000E8070230F4002708F0002808F1007408B9
:1006700003193F2BF00DF10D7010FF3F382B700860
:10068000E70771080318013FE8072908F0002A0866
:10069000F1000530F4000030F5008A15EA208A11D7
:1006A0007008E70771080318013FE8072B08F000FE
:1006B0002C08F1000630F4000030F5008A15EA201D
:1006C0008A117008E70771080318013FE8072D0831
:1006D000F0002E08F1000730F4000030F5008A1514
:1006E000EA208A117008E70771080318013FE8073C
:1006F0000330F4002F08F0003008F10074080319EB
:10070000862BF00DF10D7010FF3F7F2B6708F0076F
:1007100068080318013FF1078A1528218A1170081B
:10072000E7007108E8007208E9007308EA0067084A
:10073000B6006808B7006908B8006A08B90023085D
:100740002107F00022080318013F2407F1002508C3
:10075000F00726080318013FF1072708F0072808CB
:100760000318013FF1072908F0072A080318013F81
:10077000F1072B08F0072C080318013FF1072D089B
:10078000F0072E080318013FF1072F08F007300883
:100790000318013FF1078A1528218A117008F40017
:1007A0007108F5007208F6007308F7006708F0009A
:1007B0006808F1006908F2006A08F3009D247008D7
:1007C000B6007108B7007208B8007308B9000030AD
:1007D000F4000030F5001030F6008130F7004427B7
:1007E0007008B6007108B7007208B8007308B90045
:1007F00008000313831272087606A000F801F901BD
:1008000073087702031C1C2C7708FD007308F7009F
:100810007D08F3007608FD007208F6007D08F200FE
:100820007508FD007108F5007D08F1007408FD00F1
:100830007008F4007D08F00077080319992C7208FD
:10084000FA00F217F61777087302F70003194F2C16
:1008500008307702031C452CF7007408F90075086E
:10086000F4007608F500F60108307702031C452CE9
:10087000F7007408F9007508F400F50108307702F4
:10088000031C452C7A08F200992C770803194F2C89
:100890000310F60CF50CF40CF90CF70B482CA01F08
:1008A0005C2CF909F409F509F609F90A0319F40AA7
:1008B0000319F50A0319F60A7908F80774080318EA
:1008C000740FF00775080318750FF1077608031801
:1008D000760FF207A01B752C031C852CF20CF10C73
:1008E000F00CF80CF30F852C932C0318892CF809C5
:1008F000F009F109F209F80A0319F00A0319F10ADB
:100900000319F20A8030FA068D2C0130FC00A8256C
:100910009B2C0230FC00A8259B2C0430FC008A157F
:100920007E208A119B2C0830FC008A1584218A11B4
:100930009B2C0030FC000000080003138312770892
:1009400003192C2D73080319312D7208760680398E
:10095000FA00F217F617A0017208F8007108FC00FF
:100960007008FD007408FD027508031C750FFC0279
:100970007608031C760FF802F801FC01FD01031C48
:10098000C82C0310F20CF10CF00CF80C0130A00094
:100990007708F302031CD22C7E302007F3070318DC
:1009A000362DD72C7E302007F307031C3B2D183043
:1009B000FA07FD0DFC0DF80DF00DF10DF20DA00D77
:1009C0007408F0027508031C750FF1027608031C09
:1009D000760FF202760DA004201CF02C7D14FB2C67
:1009E0007408F00775080318750FF10776080318E7
:1009F000760AF2077D10FA031F307A05031DD92C01
:100A00007B1B7D1C222D0310F00DF10DF20DA00DAE
:100A10007408F0027508031C750FF1027608031CB8
:100A2000760FF202760D20040139FD070318FC0A47
:100A30000319F80A031D222DF80CFC0CFD0CF30A17
:100A40000319362DFA1FF8137808F2007C08F1001C
:100A50007D08F00000303F2D01308A15DF218A111A
:100A60003F2D02308A15A0218A113F2D04308A15AE
:100A700084218A113F2D08308A1592218A110000A5
:100A8000080003138312FB017308031D7708031981
:100A9000982D72087606FA007708F3077E30031C5B
:100AA000552DF30203189D2D582DF302031CA22D82
:100AB0007208F8007108FC007008FD00F817F617BE
:100AC0000310F201F101F0011830A0007D1C722D1D
:100AD0007408F00775080318750FF10776080318F6
:100AE000760FF207F20CF10CF00CF80CFC0CFD0C7C
:100AF0000310A00B662DF21B822DF80DF00DF10DE9
:100B0000F20DF3037B1B701C942DF81F942DF00A3B
:100B10000319F10A0319F20A031D942DF20CF10CCA
:100B2000F00CF30A03199D2DFA1FF2130030A62DC5
:100B300001308A15A0218A11A62D02308A15842140
:100B40008A11A62D04308A1592218A11000008000E
:100B5000031383127C18E02DFC18B12D7C19052E8F
:100B6000AA2DA0017208031DD12D7108F200700892
:100B7000F1007808F000F801A0157208031DD12DCE
:100B80007108F2007008F100F001A011201672083F
:100B9000031DD12D7108F200F101A015720803198F
:100BA000F32D2008F302031D031CF92D0310F21B83
:100BB000E02DF80DF00DF10DF20DF30BD72DF92D01
:100BC0007B1B701CFF2DF81FFF2DF00A0319F10A83
:100BD0000319F20A031DFF2DF20CF10CF00CF30ABD
:100BE0000319052EFF2D0130FC008A15A0218A1162
:100BF0000A2E0230FC008A1592218A110A2E043036
:100C0000FC008A15B9218A110A2E0830FC008A15C9
:100C100084218A11000008000130031383120505A6
:100C2000F0000030701801300806013988060030E5
:100C300085180130F10000307118023008060239C1
:100C40008806003005190130F100003071180430B9
:100C5000080604398806003085190130F10000309B
:100C6000711808300806083988060030051A013066
:100C7000F100003071181030080610398806003075
:100C8000851A0130F1000030711820300806203933
:100C9000880601300905F000003070184030080661
:100CA00040398806003089180130F1000030711891
:100CB0008030080680398806080003138312FA0181
:100CC0007308031D7A147708031DFA147A080319B0
:100CD000A92E033A0319742E7A18712EF61FA72E27
:100CE000A52EF21FA52EA72E72088039FA00F21346
:100CF00076088039F6137A060319822E7A080319CA
:100D0000A52EA72E770873020319892E031C9D2E8A
:100D1000A12E760872020319902E031C9D2EA12E7F
:100D2000750871020319972E031C9D2EA12E7408BD
:100D300070020319A92E0318A12EFA080319A72E71
:100D4000A52EFA080319A52EA72E031408000310D8
:100D5000080003140315080008003C300313831235
:100D6000BA005030BB003230BC003C30BD000A300D
:100D7000BE000030BF000030C0000030C1000030B5
:100D8000C2000030C3000030C4000030C500003095
:100D9000C6000030B2000030B3000030B4000030B4
:100DA000B5000030B6000030B7000030B8000030A9
:100DB000B9000030C7000030C8000030C900003062
:100DC000CA000030CB000030CC000030CD00003035
:100DD000CE000030CF000030D0000030D100003015
:100DE000D2000030D3000030D4000030D5000030F5
:100DF000D600080003138312FB01FA01F9018030C9
:100E0000F800FD01F11F0A2FF109F009F00A03199A
:100E1000F10AFD0AF51F122FF509F409F40A031966
:100E2000F50AFD0AF10CF00C031C1F2F7408F907DA
:100E300075080318750FFA070318FB0A0310F01F53
:100E4000272F7408FA070318FB0A7508FB07FB0C29
:100E5000FA0CF90CF80C031C122F7D1C3A2FFB091D
:100E6000FA09F909F809F80A0319F90A0319FA0A3B
:100E70000319FB0A7B08F3007A08F2007908F100F5
:100E80007808F00000000800031383128030F60693
:100E9000F9230800FF3FFF3FFF3FFF3FFF3FFF3FBA
:100EA000FF3FFF3FFF3FFF3FFF3FFF3FFF3FFF3F52
:100EB000FF3FFF3FFF3FFF3FFF3FFF3FFF3FFF3F42
:100EC000FF3FFF3FFF3FFF3FFF3FFF3FFF3FFF3F32
:100ED000FF3FFF3FFF3FFF3FFF3FFF3FFF3FFF3F22
:100EE000FF3FFF3FFF3FFF3FFF3FFF3FFF3FFF3F12
:100EF000FF3FFF3FFF3FFF3FFF3FFF3FFF3FFF3F02
:100F0000FF3FFF3FFF3FFF3FFF3FFF3FFF3FFF3FF1
:100F1000FF3FFF3FFF3FFF3FFF3FFF3FFF3FFF3FE1
:100F2000FF3FFF3FFF3FFF3FFF3FFF3FFF3FFF3FD1
:100F3000FF3FFF3FFF3FFF3FFF3FFF3FFF3FFF3FC1
:100F4000FF3FFF3FFF3FFF3FFF3FFF3FFF3FFF3FB1
:100F5000FF3FFF3FFF3FFF3FFF3FFF3FFF3FFF3FA1
:100F6000FF3FFF3FFF3FFF3FFF3FFF3FFF3FFF3F91
:100F7000FF3FFF3FFF3FFF3FFF3FFF3FFF3FFF3F81
:100F8000FF3FFF3FFF3FFF3FFF3FFF3FFF3FFF3F71
:100F9000FF3FFF3FFF3FFF3FFF3FFF3FFF3FFF3F61
:100FA000FF3FFF3FFF3FFF3FFF3FFF3FFF3FFF3F51
:100FB000FF3FFF3FFF3FFF3FFF3FFF3FFF3FFF3F41
:100FC000FF3FFF3FFF3FFF3FFF3FFF3FFF3FFF3F31
:100FD000FF3FFF3FFF3FFF3FFF3FFF3FFF3FFF3F21
:100FE000FF3FFF3FFF3FFF3FFF3FFF3FFF3FFF3F11
:100FF000FF3FFF3FFF3FFF3FFF3FFF3FFF3FFF3F01
:1010000003138312FB01FC01FA01730803192D2855
:10101000FA13F2178630F302F31B11280319112873
:101020002F28F309F30A08307302031C1E28F3006B
:10103000F20DF2017308031D03102528730803192C
:1010400025280310F20CF30B21287B1B721C2D2882
:10105000031C2D28F20A03193428F10137287B14C8
:10106000FB1F3A28F1013A280130FC003C280030EF
:10107000FC003C28FF30FC00FC08031940287521C7
:101080007208F0000800031383161208013FF000F5
:10109000F1010318F10A83126708F400F5018A11BF
:1010A000FA268A150630F2007008F4007108F5007F
:1010B000720803196028F50CF40CF513FF3F59284A
:1010C0007408F000F00D7010F00D7010F00D70103D
:1010D000F00D701030307005F3007408F0007508E2
:1010E000F100F10CF00CF113F10CF00CF11370089D
:1010F0009B000F309D0573089D04080003138312A5
:10110000A0017208031D95287108F2007008F10013
:10111000F001A0157208031D95287108F200F10175
:10112000A011201672080319A3282008F302031D3A
:10113000031CA7280310F21BAB28F00DF10DF20DD4
:10114000F30B9B28A7280130FC00A021AE28023019
:10115000FC009221AE280430FC00B92108000313E2
:1011600083161208013FF000F1010318F10A8312FF
:101170006708F400F5018A11FA268A150630F20094
:101180007008F4007108F50072080319CC28F50CFA
:10119000F40CF513FF3FC5287408F000F00D701033
:1011A000F00D7010F00D7010F00D701030307005F3
:1011B000F3007408F0007508F100F10CF00CF11365
:1011C000F10CF00CF113700895000F3097057308BF
:1011D0009704080003138312FB01FA01F901803020
:1011E000F800F10CF00C031CFE287408F9077508D0
:1011F0000318750FFA070318FB0A0310F01F0629DE
:101200007408FA0775080318750FFB07FB0CFA0C36
:10121000F90CF80C031CF1287B08F3007A08F200A3
:101220007908F1007808F000080003138312121007
:1012300092101214633083169200C521121092107E
:101240001214633083169200BF21A921B121080036
:10125000031383127008F8007108F000F101F20125
:10126000F301FB01FC019630F300FA017008F10074
:101270007808F000F801F2017E20080003138312C1
:1012800073087706031D512972087606031D51293C
:1012900071087506031D512970087406031903159A
:1012A0000800031108000800031383127008F800F7
:1012B000FB01FC019E30F300FA01F201F101F001A3
:1012C0000230FC008A11A8258A1508000630031395
:1012D00083169F008312850189013F3083168500A4
:1012E00003308900880187010800031383127B14EF
:1012F000FB1F8229F201FA1FFF30F200F100F0001B
:10130000FA0DF20CFF30080003138312FB14FB1FCD
:101310009029FF30F300F200F100F000FA0DF20C1A
:10132000FF300800031383127B15FB1F9E29013039
:10133000F300F201F101F001FA0DF20CFF300800A8
:1013400003138312F201F101F001F801F3010030FF
:101350000800031383160711831212150C3097042B
:101360000800031383168710831212150C309D0496
:10137000080003138312FA1FF2130030080003134E
:1013800083129B011D129D12080003138312950105
:10139000171297120800031383128712071608000A
:1013A000031383128717071308000313831287168A
:1013B000071208000313831287130717080003138B
:1013C0008312FB15FF300800FF3FFF3FFF3FFF3F49
:02400E007A3FF7
:00000001FF
