:100000003128FF3FFF3FFF3FFF00030E8301D90070
:100010000408D8000A08DA008A0171088316A000D3
:1000200070088312EF0001300C05F1007108013AED
:10003000031D2228A10A0319A20A0C10FF308F0009
:1000400083308E0083162008F10083126F08F000C1
:100050005A088A0058088400590E8300FF0E7F0E4C
:1000600009008A1500208A118A15B7218A118A157C
:10007000A6218A11A4265A23F401F501F601F701FD
:100080003808F0003908F1003A08F2003B08F300A4
:100090008A15EA218A110130031D0030F000700832
:1000A000031982282B082907F4002A080318013FA6
:1000B0002C07F50000307506031D60280230740619
:1000C000031D822810108A156C228A118A15672256
:1000D0008A11FF30E7008A1542218A11FF30E700BC
:1000E0008A15D8208A110D30FB00FF30FA00FB0B77
:1000F0007A287D28FA0B7A287728F330FA00FA0B51
:100100007F28000025082307F00024080318013F7A
:100110002607F1002708F00728080318013FF10718
:100120002908F0072A080318013FF1072B08F007F8
:100130002C080318013FF1072D08F0072E080318BB
:10014000013FF1072F08F00730080318013FF107BE
:1001500031087007F40071080318013F3207F500F9
:1001600000307506031DB62800307406031D0229F1
:1001700010103308723A031DDE2810108A15712200
:100180008A118A156C228A11FF30E7008A154221F4
:100190008A11FF30E7008A15D8208A110D30FB0044
:1001A000FF30FA00FB0BD528D828FA0BD528D22827
:1001B000F330FA00FA0BDA280000022933086C3A0F
:1001C000031D022910108A1562228A118A156722DE
:1001D0008A11FF30E7008A1542218A11FF30E700BB
:1001E0008A15D8208A110D30FB00FF30FA00FB0B76
:1001F000FA28FD28FA0BFA28F728F330FA00FA0B50
:10020000FF2800002208003C031D08292108C83CE3
:1002100003181029101087130713871207120F29CC
:1002200025082307F00024080318013F2607F100E2
:100230002708F00728080318013FF1072908F007ED
:100240002A080318013FF1072B08F0072C080318B0
:10025000013FF1072D08F0072E080318013FF107B1
:100260002F087007F40071080318013F3007F500EC
:1002700000307506031D3E29073074060319A629B0
:1002800027082507F00026080318013F2807F1007A
:100290002908F0072A080318013FF1072B08F00787
:1002A0002C080318013FF1072D08F0072E0803184A
:1002B000013FF1072F08F00730080318013FF1074D
:1002C00031087007F40071080318013F3207F50088
:1002D00000307506031D6E29073074060319A62920
:1002E00025082307F00024080318013F2607F10022
:1002F0002708F00728080318013FF1072908F0072D
:100300002A080318013FF1072B08F0072C080318EF
:10031000013FF1072D08F0072E080318013FF107F0
:100320002F08F00730080318013FF1073108700764
:10033000F40071080318013F3207F500003075061C
:10034000031DA42908307406031DA8291014492B85
:1003500010103D08F0008A1500228A113808F400B8
:100360003908F5003A08F6003B08F700DD2570086B
:10037000E3007108E4007208E5007308E600630812
:10038000C8006408C9006508CA006608CB004C08AC
:10039000F0004D08F1004E08F2004F08F300380855
:1003A000F4003908F5003A08F6003B08F7009924F4
:1003B0007008DB007108DC007208DD007308DE00E5
:1003C0005B08CC005C08CD005D08CE005E08CF0065
:1003D0003E08F0008A1500228A115B08F4005C08D0
:1003E000F5005D08F6005E08F700DD257008DB000B
:1003F0007108DC007208DD007308DE005B08CC00C9
:100400005C08CD005D08CE005E08CF003408F40023
:100410003508F5003608F6003708F7003808F00010
:100420003908F1003A08F2003B08F3008A152F2240
:100430008A117008DF007108E0007208E10073089B
:10044000E2005F08D0006008D1006108D2006208B5
:10045000D3006308F0006408F1006508F200660844
:10046000F3005B08F4005C08F5005D08F6005E0828
:10047000F70099247008DB007108DC007208DD00C9
:100480007308DE003F08F0008A1500228A115F0819
:10049000F4006008F5006108F6006208F700DD2549
:1004A0005B08F4005C08F5005D08F6005E08F700E4
:1004B00099247008D4007108D5007208D60073081A
:1004C000D7000030F4000030F5000030F600803036
:1004D000F7003B257008DF007108E0007208E100BA
:1004E0007308E2003C08F0008A1500228A117008A7
:1004F000DB007108DC007208DD007308DE005B08B9
:10050000F0005C08F1005D08F2005E08F3005F088F
:10051000F4006008F5006108F6006208F70099240D
:100520007008C0007108C1007208C2007308C300DF
:100530005F08F4006008F5006108F6006208F70043
:100540005B08F0005C08F1005D08F2005E08F30053
:100550008A152F228A117008C4007108C50072081C
:10056000C6007308C7008A1567228A118A156C2293
:100570008A114408F4004508F5004608F6004708CB
:10058000F7000030F0000030F1007F30F2008630DC
:10059000F300F526013003180030F000700803194D
:1005A000D92A0030C4000030C5007F30C600863034
:1005B000C7004008F4004108F5004208F60043086F
:1005C000F7000030F0000030F1007F30F20086309C
:1005D000F300F526013003180030F000700803190D
:1005E000F92A0030C0000030C1007F30C2008630E0
:1005F000C300F401F501F601F7014408F0004508D5
:10060000F1004608F2004708F300F5260130031810
:100610000030F00070080319112BC401C501C60198
:10062000C701F401F501F601F7014008F0004108A7
:10063000F1004208F2004308F300F52601300318E8
:100640000030F00070080319292BC001C101C2015C
:10065000C3014008F0004108F1004208F2004308DD
:10066000F3008A1595208A117008E7008A15422147
:100670008A114408F0004508F1004608F2004708D6
:10068000F3008A1595208A117008E7008A15D82092
:100690008A110D30FB00FF30FA00FB0B502B532B5F
:1006A000FA0B502B4D2BF330FA00FA0B552B0000B0
:1006B0003A28592B03138312A301A401A501A60113
:1006C000A701A801A901AA01AB01AC01AD01AE01CE
:1006D000AF01B001B101B201051C742B7230B3003F
:1006E0000130A3000030A400851C7A2B0130A50046
:1006F0000030A600051D802B0130A7000030A800A7
:10070000851D862B0130A9000030AA00051E8C2B08
:100710000130AB000030AC00851E922B0130AD00E3
:100720000030AE00091C982B0130AF000030B00043
:10073000891CA02B6C30B3000130B1000030B20036
:100740003808B4003908B5003A08B6003B08B700CD
:100750000130F4002508F0002608F10074080319A0
:10076000B62BF00DF10D7010FF3FAF2B7008230773
:10077000E70024080318013F7107E8002708F0008C
:100780002808F1000330F4000030F5008A157B21C1
:100790008A117008E70771080318013FE807023063
:1007A000F4002908F0002A08F10074080319DD2B71
:1007B000F00DF10D7010FF3FD62B7008E7077108A0
:1007C0000318013FE8072B08F0002C08F100053062
:1007D000F4000030F5008A157B218A117008E707C4
:1007E00071080318013FE8072D08F0002E08F100FA
:1007F0000630F4000030F5008A157B218A1170085C
:10080000E70771080318013FE8072F08F0003008D8
:10081000F1000730F4000030F5008A157B218A11C1
:100820007008E70771080318013FE8070330F40078
:100830003108F0003208F10074080319242CF00D7F
:10084000F10D7010FF3F1D2C6708F00768080318B2
:10085000013FF1078A15D4218A117008E700710859
:10086000E8007208E9007308EA006708B800680841
:10087000B9006908BA006A08BB0025082307F00020
:1008800024080318013F2607F1002708F00728086D
:100890000318013FF1072908F0072A080318013F50
:1008A000F1072B08F0072C080318013FF1072D086A
:1008B000F0072E080318013FF1072F08F007300852
:1008C0000318013FF1073108F00732080318013F10
:1008D000F1078A15D4218A117008F4007108F50017
:1008E0007208F6007308F7006708F0006808F10066
:1008F0006908F2006A08F3003B257008B800710827
:10090000B9007208BA007308BB000030F400003070
:10091000F5001030F6008130F7008A152F228A1179
:100920007008B8007108B9007208BA007308BB00FB
:1009300008000313831272087606A000F801F9017B
:1009400073087702031CBC2C7708FD007308F700BE
:100950007D08F3007608FD007208F6007D08F200BD
:100960007508FD007108F5007D08F1007408FD00B0
:100970007008F4007D08F00077080319372D72081D
:10098000FA00F217F61777087302F7000319EF2C35
:1009900008307702031CE52CF7007408F90075088D
:1009A000F4007608F500F60108307702031CE52C08
:1009B000F7007408F9007508F400F50108307702B3
:1009C000031CE52C7A08F200372D77080319EF2C69
:1009D0000310F60CF50CF40CF90CF70BE82CA01F27
:1009E000FC2CF909F409F509F609F90A0319F40AC6
:1009F0000319F50A0319F60A7908F80774080318A9
:100A0000740FF00775080318750FF10776080318BF
:100A1000760FF207A01B152D031C252DF20CF10CEF
:100A2000F00CF80CF30F252D332D0318292DF809A0
:100A3000F009F109F209F80A0319F00A0319F10A99
:100A40000319F20A8030FA062D2D0130FC004226EF
:100A5000392D0230FC004226392D0430FC008A1565
:100A600011218A11392D0830FC004527392D00301D
:100A7000FC00000008000313831277080319CA2D35
:100A800073080319CF2D720876068039FA00F21721
:100A9000F617A0017208F8007108FC007008FD004C
:100AA0007408FD027508031C750FFC027608031C10
:100AB000760FF802F801FC01FD01031C662D0310FE
:100AC000F20CF10CF00CF80C0130A0007708F302E6
:100AD000031C702D7E302007F3070318D42D752DCD
:100AE0007E302007F307031CD72D1830FA07FD0DC1
:100AF000FC0DF80DF00DF10DF20DA00D7408F002D3
:100B00007508031C750FF1027608031C760FF202BC
:100B1000760DA004201C8E2D7D14992D7408F007ED
:100B200075080318750FF10776080318760AF2079F
:100B30007D10FA031F307A05031D772D7B1B7D1C6A
:100B4000C02D0310F00DF10DF20DA00D7408F00290
:100B50007508031C750FF1027608031C760FF2026C
:100B6000760D20040139FD070318FC0A0319F80A61
:100B7000031DC02DF80CFC0CFD0CF30A0319D42D39
:100B8000FA1FF8137808F2007C08F1007D08F000E5
:100B90000030DB2D01308A1576228A11DB2D0230E0
:100BA0008A1537228A11DB2D04304527DB2D0830CA
:100BB0008A1521228A110000080003138312FB0109
:100BC0007308031D77080319342E72087606FA009D
:100BD0007708F3077E30031CF12DF3020318392E3A
:100BE000F42DF302031C3C2E7208F8007108FC007F
:100BF0007008FD00F817F6170310F201F101F0017B
:100C00001830A0007D1C0E2E7408F007750803181C
:100C1000750FF10776080318760FF207F20CF10C46
:100C2000F00CF80CFC0CFD0C0310A00B022EF21BB8
:100C30001E2EF80DF00DF10DF20DF3037B1B701C51
:100C4000302EF81F302EF00A0319F10A0319F20AA8
:100C5000031D302EF20CF10CF00CF30A0319392E9F
:100C6000FA1FF2130030402E01308A1537228A1104
:100C7000402E02304527402E04308A1521228A1149
:100C800000000800031383127C187A2EFC184B2EE8
:100C90007C199F2E442EA0017208031D6B2E710833
:100CA000F2007008F1007808F000F801A015720851
:100CB000031D6B2E7108F2007008F100F001A01105
:100CC00020167208031D6B2E7108F200F101A015A9
:100CD000720803198D2E2008F302031D031C932EA6
:100CE0000310F21B7A2EF80DF00DF10DF20DF30B3F
:100CF000712E932E7B1B701C992EF81F992EF00AD3
:100D00000319F10A0319F20A031D992EF20CF10CD2
:100D1000F00CF30A03199F2E992E0130FC008A155E
:100D200037228A11A22E0230FC008A1521228A1154
:100D3000A22E0430FC008A1556228A11A22E0830F9
:100D4000FC0045270000080001300313831205054D
:100D5000F0000030701880300806803988060030B6
:100D600085180130F1000030711840300806403914
:100D70008806003005190130F1000030711820306C
:100D8000080620398806003085190130F10000304E
:100D9000711810300806103988060030051A013025
:100DA000F100003071180830080608398806003054
:100DB000851A0130F100003071180430080604393A
:100DC000880601300905F00000307018023008066E
:100DD00002398806003089180130F100003071189E
:100DE0000130080601398806080003138312FA014E
:100DF0007308031D7A147708031DFA147A0803197F
:100E0000412F033A03190C2F7A18092FF61F3F2F91
:100E10003D2FF21F3D2F3F2F72088039FA00F21349
:100E200076088039F6137A0603191A2F7A080319FF
:100E30003D2F3F2F770873020319212F031C352FF5
:100E4000392F760872020319282F031C352F392FEA
:100E50007508710203192F2F031C352F392F7408C1
:100E600070020319412F0318392FFA0803193F2F75
:100E70003D2FFA0803193D2F3F2F031408000310DC
:100E80000800031403150800080003138312FB1461
:100E9000FB1F512FFF30F300F200F100F000FA0DBC
:100EA000F20CFF300800FF3FFF3FFF3FFF3FFF3FD7
:100EB000FF3FFF3FFF3FFF3FFF3FFF3FFF3FFF3F42
:100EC000FF3FFF3FFF3FFF3FFF3FFF3FFF3FFF3F32
:100ED000FF3FFF3FFF3FFF3FFF3FFF3FFF3FFF3F22
:100EE000FF3FFF3FFF3FFF3FFF3FFF3FFF3FFF3F12
:100EF000FF3FFF3FFF3FFF3FFF3FFF3FFF3FFF3F02
:100F0000FF3FFF3FFF3FFF3FFF3FFF3FFF3FFF3FF1
:100F1000FF3FFF3FFF3FFF3FFF3FFF3FFF3FFF3FE1
:100F2000FF3FFF3FFF3FFF3FFF3FFF3FFF3FFF3FD1
:100F3000FF3FFF3FFF3FFF3FFF3FFF3FFF3FFF3FC1
:100F4000FF3FFF3FFF3FFF3FFF3FFF3FFF3FFF3FB1
:100F5000FF3FFF3FFF3FFF3FFF3FFF3FFF3FFF3FA1
:100F6000FF3FFF3FFF3FFF3FFF3FFF3FFF3FFF3F91
:100F7000FF3FFF3FFF3FFF3FFF3FFF3FFF3FFF3F81
:100F8000FF3FFF3FFF3FFF3FFF3FFF3FFF3FFF3F71
:100F9000FF3FFF3FFF3FFF3FFF3FFF3FFF3FFF3F61
:100FA000FF3FFF3FFF3FFF3FFF3FFF3FFF3FFF3F51
:100FB000FF3FFF3FFF3FFF3FFF3FFF3FFF3FFF3F41
:100FC000FF3FFF3FFF3FFF3FFF3FFF3FFF3FFF3F31
:100FD000FF3FFF3FFF3FFF3FFF3FFF3FFF3FFF3F21
:100FE000FF3FFF3FFF3FFF3FFF3FFF3FFF3FFF3F11
:100FF000FF3FFF3FFF3FFF3FFF3FFF3FFF3FFF3F01
:10100000963003138312BC006430BD000530BE006F
:101010000A30BF000030C0000030C1000030C20004
:101020000030C3000030C4000030C5000030C600EE
:101030000030C7000030B4000030B5000030B6000A
:101040000030B7000030B8000030B9000030BA00FE
:101050000030BB000030C8000030C9000030CA00BA
:101060000030CB000030CC000030CD000030CE008E
:101070000030CF000030D0000030D1000030D2006E
:101080000030D3000030D4000030D5000030D6004E
:101090000030D700080003138312FB01FA01F901A5
:1010A0008030F800FD01F11F5B28F109F009F00A1A
:1010B0000319F10AFD0AF51F6328F509F409F40A7A
:1010C0000319F50AFD0AF10CF00C031C70287408D2
:1010D000F90775080318750FFA070318FB0A0310C0
:1010E000F01F78287408FA070318FB0A7508FB0735
:1010F000FB0CFA0CF90CF80C031C63287D1C8B28E4
:10110000FB09FA09F909F809F80A0319F90A031998
:10111000FA0A0319FB0A7B08F3007A08F20079083F
:10112000F1007808F0000000080003138312FB01AF
:10113000FC01FA0173080319C228FA13F21786306A
:10114000F302F31BA6280319A628C428F309F30AFF
:1011500008307302031CB328F300F20DF201730888
:10116000031D0310BA2873080319BA280310F20CE0
:10117000F30BB6287B1B721CC228031CC228F20A80
:101180000319C928F101CC287B14FB1FCF28F101DA
:10119000CF280130FC00D1280030FC00D128FF30DE
:1011A000FC00FC080319D52812227208F000080080
:1011B000031383161208013FF000F1010318F10A2E
:1011C00083126708F400F5014B200630F200700826
:1011D000F4007108F50072080319F328F50CF40CFB
:1011E000F513FF3FEC287408F000F00D7010F00DBF
:1011F0007010F00D7010F00D701030307005F300AD
:101200007408F0007508F100F10CF00CF113F10C0A
:10121000F00CF11370089B000F309D0573089D04BE
:10122000080003138312A0017208031D2829710806
:10123000F2007008F100F001A0157208031D2829C2
:101240007108F200F101A011201672080319362965
:101250002008F302031D031C3A290310F21B3E2948
:10126000F00DF10DF20DF30B2E293A290130FC009F
:10127000372241290230FC00212241290430FC00A0
:1012800056220800031383161208013FF000F101F3
:101290000318F10A83126708F400F5014B200630A9
:1012A000F2007008F4007108F500720803195D2956
:1012B000F50CF40CF513FF3F56297408F000F00DFF
:1012C0007010F00D7010F00D7010F00D70103030C7
:1012D0007005F3007408F0007508F100F10CF00CD3
:1012E000F113F10CF00CF113700895000F30970515
:1012F00073089704080003138312FB01FA01F90134
:101300008030F800F10CF00C031C8F297408F907E9
:1013100075080318750FFA070318FB0A0310F01F6E
:1013200097297408FA0775080318750FFB07FB0C5B
:10133000FA0CF90CF80C031C82297B08F3007A08DC
:10134000F2007908F1007808F00008000313831216
:1013500012109210C730831692005C221210921065
:10136000C7308316920050224022482208000630DF
:10137000031383169F008312850189013F30831672
:101380008500033089008801870183129010901630
:101390001016FF308F0083308E0083160C148312DA
:1013A0000C100B178B170800031383127008F8003A
:1013B0007108F000F101F201F301FB01FC0196302C
:1013C000F300FA017008F1007808F000F801F2016A
:1013D000112108000313831273087706031DFD29EA
:1013E00072087606031DFD2971087506031DFD2987
:1013F000700874060319031508000311080008009B
:10140000031383127008F800FB01FC019E30F30007
:10141000FA01F201F101F0010230FC008A114226CA
:101420008A150800031383127B14FB1F1F2AF20185
:10143000FA1FFF30F200F100F000FA0DF20CFF305D
:101440000800031383127B15FB1F2D2A0130F300C4
:10145000F201F101F001FA0DF20CFF300800031364
:1014600083128030F6068A1199248A150800031326
:101470008312F201F101F001F801F30100300800DC
:10148000031383160711831212150C3097040800FA
:10149000031383168710831212150C309D04080065
:1014A000031383129B011D129D1208000313831264
:1014B000FA1FF2130030080003138312950117126C
:1014C00097120800031383128712071608000313EC
:1014D0008312871707130800031383128716071256
:1014E00008000313831287130717080003138312DE
:1014F000FB15FF300800FF3FFF3FFF3FFF3FFF3F6F
:02400E007A3FF7
:00000001FF
