:100000000428FF3FFF3FFF3F8A1548218A118A15C8
:1000100065238A11FE268A15C7228A110E25F4014E
:10002000F501F601F7013008F0003108F10032085F
:10003000F2003308F3008A153F238A110130031DB3
:100040000030F000700803196A2800302606031DEE
:100050002B2801302506031D6A2823082107F000FC
:1000600022080318013F2407F1002708F007280899
:100070000318013FF10729087007F40071080318FD
:10008000013F2A07F50000307506031D492800309E
:100090007406031D6A288A15D8238A118A15D3236A
:1000A0008A11FF30DE008A1524228A11FF30DE001B
:1000B0008A158E228A110D30FB00FF30FA00FB0BEF
:1000C00062286528FA0B62285F28F330FA00FA0BE1
:1000D0006728000023082107F00022080318013FC9
:1000E0002407F1002508F00726080318013FF1074F
:1000F0002708F00728080318013FF10729087007AF
:10010000F40071080318013F2A07F5000030750656
:10011000031D8C2800307406031DD5282B08723A65
:10012000031DB1288A15DD238A118A15D8238A1167
:10013000FF30DE008A1524228A11FF30DE008A1586
:100140008E228A110D30FB00FF30FA00FB0BA9282C
:10015000AC28FA0BA928A628F330FA00FA0BAE282F
:1001600000002B086C3A031DD4288A15CE238A116F
:100170008A15D3238A11FF30DE008A1524228A11C2
:10018000FF30DE008A158E228A110D30FB00FF3011
:10019000FA00FB0BCC28CF28FA0BCC28C928F33067
:1001A000FA00FA0BD1280000742A3508F0008A15ED
:1001B00055238A113008F4003108F5003208F600A2
:1001C0003308F70097267008DA007108DB00720820
:1001D000DC007308DD005A08C0005B08C1005C0841
:1001E000C2005D08C3004408F0004508F10046085D
:1001F000F2004708F3003008F4003108F500320837
:10020000F6003308F700EF257008D2007108D3001C
:100210007208D4007308D5005208C4005308C50002
:100220005408C6005508C7003608F0008A15552343
:100230008A115208F4005308F5005408F6005508D6
:10024000F70097267008D2007108D3007208D40016
:100250007308D5005208C4005308C5005408C600EE
:100260005508C7002C08F4002D08F5002E08F600EC
:100270002F08F7003008F0003108F1003208F200D2
:100280003308F3008A15A1238A117008D60071087B
:10029000D7007208D8007308D9005608C80057085C
:1002A000C9005808CA005908CB005A08F0005B087A
:1002B000F1005C08F2005D08F3005208F4005308F6
:1002C000F5005408F6005508F700EF257008D20035
:1002D0007108D3007208D4007308D5003708F00005
:1002E0008A1555238A115608F4005708F500580856
:1002F000F6005908F70097265208F4005308F50055
:100300005408F6005508F700EF257008D60071086C
:10031000D7007208D8007308D9005608CC005708D7
:10032000CD005808CE005908CF003408F0008A15D7
:1003300055238A117008D2007108D3007208D400C6
:100340007308D5005208F0005308F1005408F20079
:100350005508F3005608F4005708F5005808F60051
:100360005908F700EF257008B8007108B900720845
:10037000BA007308BB005608F4005708F500580887
:10038000F6005908F7005208F0005308F10054082D
:10039000F2005508F3008A15A1238A117008BC00E9
:1003A0007108BD007208BE007308BF008A15D32310
:1003B0008A118A15D8238A113C08F4003D08F500FB
:1003C0003E08F6003F08F7000030F0000030F10072
:1003D0007F30F2008630F3008A15F8208A11013050
:1003E00003180030F00070080319FE290030BC002B
:1003F0000030BD007F30BE008630BF003808F400FA
:100400003908F5003A08F6003B08F7000030F00024
:100410000030F1007F30F2008630F3008A15F820BA
:100420008A11013003180030F00070080319202AE7
:100430000030B8000030B9007F30BA008630BB0011
:10044000F401F501F601F7013C08F0003D08F10068
:100450003E08F2003F08F3008A15F8208A110130A7
:1004600003180030F000700803193A2ABC01BD01DE
:10047000BE01BF01F401F501F601F7013808F000F3
:100480003908F1003A08F2003B08F3008A15F82019
:100490008A11013003180030F00070080319542A43
:1004A000B801B901BA01BB013808F0003908F10000
:1004B0003A08F2003B08F3008A15E1218A1170081E
:1004C000DE008A1524228A113C08F0003D08F10064
:1004D0003E08F2003F08F3008A15E1218A117008F6
:1004E000DE008A158E228A110D30FB00FF30FA00E3
:1004F000FB0B7B2A7E2AFA0B7B2A782AF330FA0040
:10050000FA0B802A00000030861B0130F4007408CA
:10051000003A03198C2A0B288A15C7228A110E2546
:10052000F401F501F601F7013008F0003108F1009F
:100530003208F2003308F3008A153F238A11013094
:10054000031D0030F00070080319EB2A0030260666
:10055000031DAC2A01302506031DEB2A23082107C1
:10056000F00022080318013F2407F1002708F007D4
:1005700028080318013FF10729087007F4007108E3
:100580000318013F2A07F50000307506031DCA2A2B
:1005900000307406031DEB2A8A15CE238A118A15B2
:1005A000DD238A11FF30DE008A1524228A11FF30F4
:1005B000DE008A158E228A110D30FB00FF30FA0012
:1005C000FB0BE32AE62AFA0BE32AE02AF330FA00CF
:1005D000FA0BE82A000023082107F000220803187C
:1005E000013F2407F1002508F00726080318013F02
:1005F000F1072708F00728080318013FF107290829
:100600007007F40071080318013F2A07F500003055
:100610007506031D0D2B00307406031D562B2B0889
:10062000723A031D322B8A15D3238A118A15CE23E1
:100630008A11FF30DE008A1524228A11FF30DE0085
:100640008A158E228A110D30FB00FF30FA00FB0B59
:100650002A2B2D2BFA0B2A2B272BF330FA00FA0B1F
:100660002F2B00002B086C3A031D552B8A15D8231D
:100670008A118A15DD238A11FF30DE008A152422B3
:100680008A11FF30DE008A158E228A110D30FB00A0
:10069000FF30FA00FB0B4D2B502BFA0B4D2B4A2B46
:1006A000F330FA00FA0B522B0000F52C3508F0005D
:1006B0008A1555238A113008F4003108F5003208F4
:1006C000F6003308F70097267008DA007108DB009F
:1006D0007208DC007308DD005A08C0005B08C10026
:1006E0005C08C2005D08C3004408F0004508F10042
:1006F0004608F2004708F3003008F4003108F5001E
:100700003208F6003308F700EF257008D2007108B0
:10071000D3007208D4007308D5005208C4005308EF
:10072000C5005408C6005508C7003608F0008A15F1
:1007300055238A115208F4005308F5005408F600B6
:100740005508F70097267008D2007108D300720888
:10075000D4007308D5005208C4005308C5005408DB
:10076000C6005508C7002C08F4002D08F5002E0817
:10077000F6002F08F7003008F0003108F1003208C9
:10078000F2003308F3008A15A1238A117008D600FD
:100790007108D7007208D8007308D9005608C8003D
:1007A0005708C9005808CA005908CB005A08F00079
:1007B0005B08F1005C08F2005D08F3005208F400E9
:1007C0005308F5005408F6005508F700EF257008A7
:1007D000D2007108D3007208D4007308D50037081E
:1007E000F0008A1555238A115608F4005708F500C1
:1007F0005808F6005908F70097265208F4005308E5
:10080000F5005408F6005508F700EF257008D600EB
:100810007108D7007208D8007308D9005608CC00B8
:100820005708CD005808CE005908CF003408F00012
:100830008A1555238A117008D2007108D3007208F6
:10084000D4007308D5005208F0005308F100540892
:10085000F2005508F3005608F4005708F500580850
:10086000F6005908F700EF257008B8007108B900C4
:100870007208BA007308BB005608F4005708F50068
:100880005808F6005908F7005208F0005308F10024
:100890005408F2005508F3008A15A1238A11700844
:1008A000BC007108BD007208BE007308BF008A1545
:1008B000D3238A118A15D8238A113C08F4003D08F5
:1008C000F5003E08F6003F08F7000030F000003069
:1008D000F1007F30F2008630F3008A15F8208A118B
:1008E000013003180030F000700803197F2C00302D
:1008F000BC000030BD007F30BE008630BF0038082D
:10090000F4003908F5003A08F6003B08F70000301B
:10091000F0000030F1007F30F2008630F3008A15DD
:10092000F8208A11013003180030F0007008031914
:10093000A12C0030B8000030B9007F30BA008630FA
:10094000BB00F401F501F601F7013C08F0003D0899
:10095000F1003E08F2003F08F3008A15F8208A11E2
:10096000013003180030F00070080319BB2CBC01E3
:10097000BD01BE01BF01F401F501F601F701380820
:10098000F0003908F1003A08F2003B08F3008A153C
:10099000F8208A11013003180030F00070080319A4
:1009A000D52CB801B901BA01BB013C08F0003D08E3
:1009B000F1003E08F2003F08F3008A15E1218A1198
:1009C0007008DE008A1524228A113808F0003908E0
:1009D000F1003A08F2003B08F3008A15E1218A1180
:1009E0007008DE008A158E228A110D30FB00FF3060
:1009F000FA00FB0BFC2CFF2CFA0BFC2CF92CF3302F
:100A0000FA00FA0B012D00000030061B0130F40043
:100A10007408003A03190B288C2A0D2D0313831236
:100A2000A101A201A301A401A501A601A701A8019A
:100A3000A901AA01051D222D7230AB000130A100D1
:100A40000030A200851D282D0130A3000030A40035
:100A5000051E2E2D0130A5000030A600851E342D68
:100A60000130A7000030A800091C3C2D6C30AB0001
:100A70000130A9000030AA003008AC003108AD00F8
:100A80003208AE003308AF000130F4002308F00054
:100A90002408F10074080319522DF00DF10D7010A7
:100AA000FF3F4B2D70082107DE0022080318013F8D
:100AB0007107DF002508F0002608F1000330F4007C
:100AC0000030F5008A15FE228A117008DE077108D1
:100AD0000318013FDF070230F4002708F000280860
:100AE000F10074080319792DF00DF10D7010FF3F1E
:100AF000722D7008DE0771080318013FDF0729080F
:100B0000F0002A08F1000530F4000030F5008A15E5
:100B1000FE228A115E08F0075F080318013FF10703
:100B20008A1529238A117008DE007108DF00720817
:100B3000E0007308E1005E08B0005F08B1006008E3
:100B4000B2006108B30023082107F000220803184F
:100B5000013F2407F1002508F00726080318013F8C
:100B6000F1072708F00728080318013FF1072908B3
:100B7000F0072A080318013FF1078A1529238A1173
:100B80007008F4007108F5007208F6007308F700A9
:100B90005E08F0005F08F1006008F2006108F300F1
:100BA0008A1500208A117008B0007108B10072081F
:100BB000B2007308B3000030F4000030F50040309C
:100BC000F6008030F7008A15A1238A117008B00062
:100BD0007108B1007208B2007308B3000800031373
:100BE000831272087606A000F801F90173087702F3
:100BF000031C122E7708FD007308F7007D08F30030
:100C00007608FD007208F6007D08F2007508FD0008
:100C10007108F5007D08F1007408FD007008F4000B
:100C20007D08F00077080319932E7208FA00F21776
:100C3000F61777087302F7000319452E083077027C
:100C4000031C3B2EF7007408F9007508F4007608C1
:100C5000F500F60108307702031C3B2EF7007408FC
:100C6000F9007508F400F50108307702031C3B2EEB
:100C70007A08F200932E77080319452E0310F60C1C
:100C8000F50CF40CF90CF70B3E2EA01F522EF909AF
:100C9000F409F509F609F90A0319F40A0319F50A22
:100CA0000319F60A7908F80774080318740FF00797
:100CB00075080318750FF10776080318760FF20709
:100CC000A01B6B2E031C7B2EF20CF10CF00CF80C0D
:100CD000F30F7B2E8D2E0318812EF809F009F109F0
:100CE000F209F80A0319F00A0319F10A0319F20AC2
:100CF0008030FA06872E0130FC008A159C208A116C
:100D0000952E0230FC008A159C208A11952E043005
:100D1000FC008A155D228A11952E0830FC008A1588
:100D200085238A11952E0030FC0000000800031373
:100D30008312FB017308031D77080319EE2E720856
:100D40007606FA007708F3077E30031CAB2EF30219
:100D50000318F32EAE2EF302031CF82E7208F800CF
:100D60007108FC007008FD00F817F6170310F20177
:100D7000F101F0011830A0007D1CC82E7408F007A6
:100D800075080318750FF10776080318760FF20738
:100D9000F20CF10CF00CF80CFC0CFD0C0310A00B89
:100DA000BC2EF21BD82EF80DF00DF10DF20DF30351
:100DB0007B1B701CEA2EF81FEA2EF00A0319F10AB9
:100DC0000319F20A031DEA2EF20CF10CF00CF30ADF
:100DD0000319F32EFA1FF2130030FC2E01308A158E
:100DE000A9238A11FC2E02308A1585238A11FC2E34
:100DF00004308A1593238A1100000800031383121C
:100E000012109210C730831692008A15C8238A11D7
:100E100012109210C7308316920015278A15B2233C
:100E20008A118A15BA238A110800031383129B01C1
:100E30001D129D120800FF3FFF3FFF3FFF3FFF3F96
:100E4000FF3FFF3FFF3FFF3FFF3FFF3FFF3FFF3FB2
:100E5000FF3FFF3FFF3FFF3FFF3FFF3FFF3FFF3FA2
:100E6000FF3FFF3FFF3FFF3FFF3FFF3FFF3FFF3F92
:100E7000FF3FFF3FFF3FFF3FFF3FFF3FFF3FFF3F82
:100E8000FF3FFF3FFF3FFF3FFF3FFF3FFF3FFF3F72
:100E9000FF3FFF3FFF3FFF3FFF3FFF3FFF3FFF3F62
:100EA000FF3FFF3FFF3FFF3FFF3FFF3FFF3FFF3F52
:100EB000FF3FFF3FFF3FFF3FFF3FFF3FFF3FFF3F42
:100EC000FF3FFF3FFF3FFF3FFF3FFF3FFF3FFF3F32
:100ED000FF3FFF3FFF3FFF3FFF3FFF3FFF3FFF3F22
:100EE000FF3FFF3FFF3FFF3FFF3FFF3FFF3FFF3F12
:100EF000FF3FFF3FFF3FFF3FFF3FFF3FFF3FFF3F02
:100F0000FF3FFF3FFF3FFF3FFF3FFF3FFF3FFF3FF1
:100F1000FF3FFF3FFF3FFF3FFF3FFF3FFF3FFF3FE1
:100F2000FF3FFF3FFF3FFF3FFF3FFF3FFF3FFF3FD1
:100F3000FF3FFF3FFF3FFF3FFF3FFF3FFF3FFF3FC1
:100F4000FF3FFF3FFF3FFF3FFF3FFF3FFF3FFF3FB1
:100F5000FF3FFF3FFF3FFF3FFF3FFF3FFF3FFF3FA1
:100F6000FF3FFF3FFF3FFF3FFF3FFF3FFF3FFF3F91
:100F7000FF3FFF3FFF3FFF3FFF3FFF3FFF3FFF3F81
:100F8000FF3FFF3FFF3FFF3FFF3FFF3FFF3FFF3F71
:100F9000FF3FFF3FFF3FFF3FFF3FFF3FFF3FFF3F61
:100FA000FF3FFF3FFF3FFF3FFF3FFF3FFF3FFF3F51
:100FB000FF3FFF3FFF3FFF3FFF3FFF3FFF3FFF3F41
:100FC000FF3FFF3FFF3FFF3FFF3FFF3FFF3FFF3F31
:100FD000FF3FFF3FFF3FFF3FFF3FFF3FFF3FFF3F21
:100FE000FF3FFF3FFF3FFF3FFF3FFF3FFF3FFF3F11
:100FF000FF3FFF3FFF3FFF3FFF3FFF3FFF3FFF3F01
:1010000003138312770803198F2873080319922892
:10101000720876068039FA00F217F617A0017208F6
:10102000F8007108FC007008FD007408FD027508E6
:10103000031C750FFC027608031C760FF802F801FA
:10104000FC01FD01031C2B280310F20CF10CF00C29
:10105000F80C0130A0007708F302031C35287E301D
:101060002007F307031895283A287E302007F30756
:10107000031C98281830FA07FD0DFC0DF80DF00D33
:10108000F10DF20DA00D7408F0027508031C750F28
:10109000F1027608031C760FF202760DA004201CE4
:1010A00053287D145E287408F00775080318750F1F
:1010B000F10776080318760AF2077D10FA031F304D
:1010C0007A05031D3C287B1B7D1C85280310F00D31
:1010D000F10DF20DA00D7408F0027508031C750FD8
:1010E000F1027608031C760FF202760D2004013916
:1010F000FD070318FC0A0319F80A031D8528F80CDC
:10110000FC0CFD0CF30A03199528FA1FF813780854
:10111000F2007C08F1007D08F00000309A280130D0
:10112000E2239A280230A9239A28043085239A289A
:101130000830932300000800031383127C18D4287E
:10114000FC18A5287C19F3289E28A0017208031D0D
:10115000C5287108F2007008F1007808F000F80165
:10116000A0157208031DC5287108F2007008F1006F
:10117000F001A01120167208031DC5287108F200A5
:10118000F101A01572080319E7282008F302031DD6
:10119000031CEB280310F21BD428F80DF00DF10D01
:1011A000F20DF30BCB28EB287B1B701CEF28F81FEC
:1011B000EF28F00A0319F10A0319F20A031DEF28B8
:1011C000F20CF10CF00CF30A0319F328EF280130AC
:1011D000FC00A923F6280230FC009323F6280430F3
:1011E000FC00C223F6280830FC008523000008001C
:1011F00003138312FA017308031D7A147708031D81
:10120000FA147A0803194429033A03190F297A18A2
:101210000C29F61F42294029F21F40294229720851
:101220008039FA00F21376088039F6137A0603192A
:101230001D297A08031940294229770873020319E6
:101240002429031C38293C297608720203192B290A
:10125000031C38293C297508710203193229031C23
:1012600038293C29740870020319442903183C29C1
:10127000FA08031942294029FA080319402942298A
:1012800003140800031008000314031508000800E5
:10129000BE3003138312B4001430B5000A30B60018
:1012A0000830B7000030B8000030B9000030BA0094
:1012B0000030BB000030BC000030BD000030BE007C
:1012C0000030BF000030AC000030AD000030AE0098
:1012D0000030AF000030B0000030B1000030B2008C
:1012E0000030B3000030C0000030C1000030C20048
:1012F0000030C3000030C4000030C5000030C6001C
:101300000030C7000030C8000030C9000030CA00FB
:101310000030CB000030CC000030CD000030CE00DB
:101320000030CF000030D0000030D100080003139F
:101330008312FB01FA01F9018030F800FD01F11F71
:10134000A729F109F009F00A0319F10AFD0AF51FAE
:10135000AF29F509F409F40A0319F50AFD0AF10C9D
:10136000F00C031CBC297408F90775080318750FE5
:10137000FA070318FB0A0310F01FC4297408FA07C0
:101380000318FB0A7508FB07FB0CFA0CF90CF80CA8
:10139000031CAF297D1CD729FB09FA09F909F809B3
:1013A000F80A0319F90A0319FA0A0319FB0A7B0858
:1013B000F3007A08F2007908F1007808F0000000E4
:1013C000080003138312FB01FC01FA0173080319DF
:1013D0000E2AFA13F2178630F302F31BF2290319CF
:1013E000F229102AF309F30A08307302031CFF29BB
:1013F000F300F20DF2017308031D0310062A7308AF
:101400000319062A0310F20CF30B022A7B1B721C31
:101410000E2A031C0E2AF20A0319152AF101182AB2
:101420007B14FB1F1B2AF1011B2A0130FC001D2A23
:101430000030FC001D2AFF30FC00FC080319212AA3
:1014400076237208F0000800031383161208013F88
:10145000F000F1010318F10A83125E08F400F501AF
:1014600097210630F2007008F4007108F500720848
:1014700003193F2AF50CF40CF513FF3F382A7408C2
:10148000F000F00D7010F00D7010F00D7010F00DF8
:10149000701030307005F3007408F0007508F1002A
:1014A000F10CF00CF113F10CF00CF1137008950035
:1014B0000F30970573089704080003138312A001E7
:1014C0007208031D742A7108F2007008F100F0011F
:1014D000A0157208031D742A7108F200F101A01111
:1014E000201672080319822A2008F302031D031C28
:1014F000862A0310F21B8A2AF00DF10DF20DF30B70
:101500007A2A862A0130FC00A9238D2A0230FC00A9
:1015100093238D2A0430FC00C22308000313831692
:101520001208013FF000F1010318F10A83125E086E
:10153000F400F50197210630F2007008F4007108FC
:10154000F50072080319A92AF50CF40CF513FF3FF6
:10155000A22A7408F000F00D7010F00D7010F00D5C
:101560007010F00D701030307005F3007408F0004A
:101570007508F100F10CF00CF113F10CF00CF11303
:1015800070089B000F309D0573089D04080003132D
:10159000831288130813003005190130F100003060
:1015A000711820300806203988060030851901306E
:1015B000F10000307118103008061039880600302C
:1015C000051A0130F100003071180830080608399A
:1015D00088060030851A0130F1000030711804309F
:1015E00008060439880601300905F000003070183B
:1015F0000230080602398806081008000313831217
:10160000FB01FA01F9018030F800F10CF00C031C29
:10161000122B7408F90775080318750FFA070318D9
:10162000FB0A0310F01F1A2B7408FA077508031839
:10163000750FFB07FB0CFA0CF90CF80C031C052BBF
:101640007B08F3007A08F2007908F1007808F000CE
:101650000800031383127008F8007108F000F1010C
:10166000F201F301FB01FC019630F300FA0170086E
:10167000F1007808F000F801F2015D220800031380
:10168000831273087706031D522B72087606031D1A
:10169000522B71087506031D522B7008740603192E
:1016A00003150800031108000800031383127008D3
:1016B000F800FB01FC019E30F300FA01F201F10198
:1016C000F0010230FC009C20080006300313831652
:1016D0009F008312850189013F3083168500033006
:1016E000890088018701C030860008000313831237
:1016F0007B14FB1F832BF201FA1FFF30F200F10075
:10170000F000FA0DF20CFF30080003138312FB14F3
:10171000FB1F912BFF30F300F200F100F000FA0DF7
:10172000F20CFF300800031383127B15FB1F9F2B65
:101730000130F300F201F101F001FA0DF20CFF307B
:101740000800031383128030F6068A11EF258A15EC
:10175000080003138312F201F101F001F801F30113
:1017600000300800031383160711831212150C3082
:1017700097040800031383168710831212150C3088
:101780009D04080003138312FA1FF21300300800AF
:101790000313831295011712971208000313831283
:1017A0008712071608000313831287170713080010
:1017B000031383128716071208000313831287137B
:1017C0000717080003138312FB15FF300800FF3FC3
:02400E007A3FF7
:00000001FF
