:100000000428FF3FFF3FFF3F03138316860188014B
:100010008312880186014F20CC30FC00FF30FB00AA
:10002000FF30FA00FC0B15281C28FB0B18281B2896
:10003000FA0B182815281228F930FB00FF30FA00B7
:10004000FB0B23282628FA0B23282028D430FA007B
:10005000FA0B2828000000005E20CC30FC00FF30A6
:10006000FB00FF30FA00FC0B36283D28FB0B39283B
:100070003C28FA0B392836283328F930FB00FF30AA
:10008000FA00FB0B44284728FA0B44284128D430B7
:10009000FA00FA0B4928000000000B284E28031331
:1000A0008312861706178612061686150611861401
:1000B0000614881308160817881208000313831201
:1000C0008617061386160616861106158614061060
:1000D00088170816081388160800FF3FFF3FFF3FE8
:02400E007A3FF7
:00000001FF
