:100000000428FF3FFF3FFF3F03138316880183123D
:10001000A001A10100302102031D10284B30200255
:100020000318362888170230FB00FF30FA00FB0B5C
:100030001A281D28FA0B1A281728F030FA00FA0B94
:100040001F280000000088131830FB00FF30FA0062
:10005000FB0B2B282E28FA0B2B282828F630FA0029
:10006000FA0B3028A00A0319A10A0A28A001A1014D
:1000700000302102031D3E284B3020020318632864
:1000800088170330FB00FF30FA00FB0B48284B2891
:10009000FA0B48284528B730FA00FA0B4D28000023
:1000A00088131830FB00FF30FA00FB0B58285B2840
:1000B000FA0B582855282E30FA00FA0B5D28A00AB2
:1000C0000319A10A3828A001A10100302102031D53
:1000D0006B284B3020020318902806160230FB00D4
:1000E000FF30FA00FB0B75287828FA0B7528722868
:1000F0004A30FA00FA0B7A2806121930FB00FF305A
:10010000FA00FB0B84288728FA0B842881289B306F
:10011000FA00FA0B89280000A00A0319A10A652831
:100120009028FF3FFF3FFF3FFF3FFF3FFF3FFF3F65
:02400E007A3FF7
:00000001FF
