:100000000428FF3FFF3FFF3F03138316870183123E
:10001000871307178712071612109210C73083161E
:100020009200692112109210C7308316920063214A
:100030004B2143215A30A0000A21D230A000D12008
:100040003330FC00FF30FB00FF30FA00FC0B2928A6
:100050003028FB0B2C282F28FA0B2C28292826289F
:10006000FD30FB00FF30FA00FB0B37283A28FA0B73
:1000700037283428B530FA00FA0B3C280000FF304E
:10008000A0000A21FF30A000D1203330FC00FF3057
:10009000FB00FF30FA00FC0B4E285528FB0B5128C3
:1000A0005428FA0B51284E284B28FD30FB00FF3016
:1000B000FA00FB0B5C285F28FA0B5C285928B53046
:1000C000FA00FA0B6128000053215B213330FC0059
:1000D000FF30FB00FF30FA00FC0B6F287628FB0B8B
:1000E00072287528FA0B72286F286C28FD30FB00E7
:1000F000FF30FA00FB0B7D288028FA0B7D287A2838
:10010000B530FA00FA0B822800001A28862803135B
:100110008312FB01FA01F9018030F800FD01F11FA3
:100120009728F109F009F00A0319F10AFD0AF51FF1
:100130009F28F509F409F40A0319F50AFD0AF10CE0
:10014000F00C031CAC287408F90775080318750F28
:10015000FA070318FB0A0310F01FB4287408FA0703
:100160000318FB0A7508FB07FB0CFA0CF90CF80CDA
:10017000031C9F287D1CC728FB09FA09F909F80907
:10018000F80A0319F90A0319FA0A0319FB0A7B088A
:10019000F3007A08F2007908F1007808F000000016
:1001A0000800031383161208013FF000F101031841
:1001B000F10A83122008F400F50187200630F200CE
:1001C0007008F4007108F50072080319EC28F50CAA
:1001D000F40CF513FF3FE5287408F000F00D7010E3
:1001E000F00D7010F00D7010F00D701030307005C3
:1001F000F3007408F0007508F100F10CF00CF11335
:10020000F10CF00CF11370089B000F309D05730882
:100210009D040800031383161208013FF000F1014A
:100220000318F10A83122008F400F5018720063034
:10023000F2007008F4007108F5007208031925290E
:10024000F50CF40CF513FF3F1E297408F000F00DB7
:100250007010F00D7010F00D7010F00D7010303047
:100260007005F3007408F0007508F100F10CF00C53
:10027000F113F10CF00CF113700895000F30970595
:10028000730897040800031383168710831212154E
:100290000C309D04080003138316071183121215F6
:1002A0000C309704080003138316071583121211EC
:1002B000F030970508000313831687148312121178
:1002C000F0309D050800031383129B011D129D123F
:1002D0000800031383129501171297120800FF3FBD
:02400E007A3FF7
:00000001FF
