:100000000428FF3FFF3FFF3F03138312A001A1011C
:1000100080302106F00080307002031D112864300A
:10002000200203183728013086000230FB00FF3021
:10003000FA00FB0B1C281F28FA0B1C2819284A3031
:10004000FA00FA0B212886011930FB00FF30FA0074
:10005000FB0B2B282E28FA0B2B2828289B30FA0084
:10006000FA0B30280000A00A0319A10A0828A001F1
:10007000A10180302106F00080307002031D42286B
:100080006430200203186828013086000330FB002A
:10009000FF30FA00FB0B4D285028FA0B4D284A2858
:1000A0009630FA00FA0B522886011830FB00FF3018
:1000B000FA00FB0B5C285F28FA0B5C2859284F30AC
:1000C000FA00FA0B61280000A00A0319A10A3928D6
:1000D0006828FF3FFF3FFF3FFF3FFF3FFF3FFF3FDE
:02400E007A3FF7
:00000001FF
