:100000000428FF3FFF3FFF3F0313831686010C3098
:1000100099001815F620112170080319F4280621FB
:100020007008A00030307002F1007108A000710863
:10003000013A031D6128013086000230FB00FF30C9
:10004000FA00FB0B24282728FA0B24282128F0305B
:10005000FA00FA0B29280000000086011830FB0086
:10006000FF30FA00FB0B35283828FA0B35283228E8
:100070004F30FA00FA0B3A280000A630FA00FA0BCB
:100080003F2800000630FC00FF30FB00FF30FA0084
:10009000FC0B4B285228FB0B4E285128FA0B4E28FC
:1000A0004B2848281A30FB00FF30FA00FB0B592878
:1000B0005C28FA0B592856284230FA00FA0B5E28C1
:1000C000F4282008003A031DAB28013086000230D6
:1000D000FB00FF30FA00FB0B6E287128FA0B6E282C
:1000E0006B289D30FA00FA0B732800008601183047
:1000F000FB00FF30FA00FB0B7E288128FA0B7E28DC
:100100007B284F30FA00FA0B83280000F930FA0000
:10011000FA0B8828000000000630FC00FF30FB00CE
:10012000FF30FA00FC0B95289C28FB0B98289B2895
:10013000FA0B9828952892281A30FB00FF30FA0015
:10014000FB0BA328A628FA0BA328A0284230FA000C
:10015000FA0BA828F4282008023A031DF4280130DD
:1001600086000330FB00FF30FA00FB0BB828BB28E9
:10017000FA0BB828B5284230FA00FA0BBD28000067
:10018000000086011830FB00FF30FA00FB0BC92885
:10019000CC28FA0BC928C6284F30FA00FA0BCE2813
:1001A00000005330FA00FA0BD3280630FC00FF3071
:1001B000FB00FF30FA00FC0BDE28E528FB0BE128F2
:1001C000E428FA0BE128DE28DB281A30FB00FF3098
:1001D000FA00FB0BEC28EF28FA0BEC28E928423058
:1001E000FA00FA0BF128F4280B28F52803138316DC
:1001F000981690308312980083168717071383127E
:100200008C1E05291A08A500FF2808000313831275
:100210001A08A100981C0E29181218162108F000BF
:1002200008000030031383128C1A0130F1007108AA
:10023000F0000800FF3FFF3FFF3FFF3FFF3FFF3F52
:02400E007A3FF7
:00000001FF
