:100000000428FF3FFF3FFF3F03138316860183123F
:10001000A001A10100302102031D1028643020023C
:1000200003183628803086000230FB00FF30FA00CB
:10003000FB0B1B281E28FA0B1B2818284A30FA0035
:10004000FA0B202886011930FB00FF30FA00FB0B69
:100050002A282D28FA0B2A2827289B30FA00FA0B89
:100060002F280000A00A0319A10A0A28A001A10153
:1000700000302102031D3E2864302002031864284A
:10008000803086000330FB00FF30FA00FB0B49286C
:100090004C28FA0B492846289630FA00FA0B4E28CD
:1000A00086011830FB00FF30FA00FB0B58285B2854
:1000B000FA0B582855284F30FA00FA0B5D2800003B
:1000C000A00A0319A10A382807286528FF3FFF3F27
:02400E007A3FF7
:00000001FF
