:100000000428FF3FFF3FFF3F03138316880186014B
:100010008701071007308312A600A701F823E830F4
:10002000A6000330A700E830A8000330A90064222E
:10003000A401A50100302502031D20284B30240215
:100040000318462886170230FB00FF30FA00FB0B2E
:100050002A282D28FA0B2A282728F030FA00FA0B34
:100060002F280000000086131830FB00FF30FA0034
:10007000FB0B3B283E28FA0B3B283828F630FA00C9
:10008000FA0B4028A40A0319A50A1A28A401A501FD
:1000900000302502031D4E284B302402031874281B
:1000A00006160230FB00FF30FA00FB0B58285B28D5
:1000B000FA0B58285528F030FA00FA0B5D2800009A
:1000C000000006121830FB00FF30FA00FB0B692815
:1000D0006C28FA0B69286628F630FA00FA0B6E28AD
:1000E000A40A0319A50A4828A401A5010030250285
:1000F000031D7C284B3024020318A22886140230EA
:10010000FB00FF30FA00FB0B86288928FA0B8628B3
:100110008328F030FA00FA0B8B28000000008610CC
:100120001830FB00FF30FA00FB0B97289A28FA0BD7
:1001300097289428F630FA00FA0B9C28A40A031991
:10014000A50A7628A401A50100302502031DAA28CE
:100150004B3024020318D02888170230FB00FF30F0
:10016000FA00FB0BB428B728FA0BB428B128F030FA
:10017000FA00FA0BB9280000000088131830FB00C1
:10018000FF30FA00FB0BC528C828FA0BC528C22887
:10019000F630FA00FA0BCA28A40A0319A50AA42803
:1001A000A401A50100302502031DD8284B302402EC
:1001B0000318FE2808160230FB00FF30FA00FB0B84
:1001C000E228E528FA0BE228DF28F030FA00FA0BE3
:1001D000E7280000000008121830FB00FF30FA008A
:1001E000FB0BF328F628FA0BF328F028F630FA0078
:1001F000FA0BF828A40A0319A50AD228A401A5011C
:1002000000302502031D06294B30240203182C2937
:1002100088150230FB00FF30FA00FB0B1029132970
:10022000FA0B10290D29F030FA00FA0B15290000FD
:10023000000088111830FB00FF30FA00FB0B212969
:100240002429FA0B21291E29F630FA00FA0B262957
:10025000A40A0319A50A0029E830A6000330A70064
:10026000E830A8000330A900642235290313831263
:100270007408F8027508031C750FF9027608031C50
:10028000760FFA027708031C770FFB02F30D073095
:10029000FC00730DF80DF90DFA0DFB0D7408731CBD
:1002A0005F29F8027508031C750FF9027608031C14
:1002B000760FFA027708031C770FFB026C29F80708
:1002C00075080318750FF90776080318760FFA07F3
:1002D00077080318770FFB07F30DFC0B4929720D04
:1002E000F80DF90DFA0DFB0D7408731C8529F80241
:1002F0007508031C750FF9027608031C760FFA02C5
:100300007708031C770FFB029229F807750803187A
:10031000750FF90776080318760FFA0777080318A0
:10032000770FFB07F20D0730FC00720DF80DF90D89
:10033000FA0DFB0D7408721CAB29F8027508031C3A
:10034000750FF9027608031C760FFA027708031C72
:10035000770FFB02B829F80775080318750FF9071E
:1003600076080318760FFA0777080318770FFB074C
:10037000F20DFC0B9529710DF80DF90DFA0DFB0D21
:100380007408721CD129F8027508031C750FF90254
:100390007608031C760FFA027708031C770FFB021E
:1003A000DE29F80775080318750FF9077608031892
:1003B000760FFA0777080318770FFB07F10D073060
:1003C000FC00710DF80DF90DFA0DFB0D7408711C90
:1003D000F729F8027508031C750FF9027608031C4B
:1003E000760FFA027708031C770FFB02042AF8073E
:1003F00075080318750FF90776080318760FFA07C2
:1004000077080318770FFB07F10DFC0BE129700D3E
:10041000F80DF90DFA0DFB0D7408711C1D2AF80278
:100420007508031C750FF9027608031C760FFA0293
:100430007708031C770FFB022A2AF80775080318B0
:10044000750FF90776080318760FFA07770803186F
:10045000770FFB07F00D0730FC00700DF80DF90D5C
:10046000FA0DFB0D7408701C432AF8027508031C72
:10047000750FF9027608031C760FFA027708031C41
:10048000770FFB02502AF80775080318750FF90754
:1004900076080318760FFA0777080318770FFB071B
:1004A000F00DFC0B2D2A7018632A7408F8077508E4
:1004B0000318750FF90776080318760FFA077708FF
:1004C0000318770FFB0708003324E830F4000330EB
:1004D000F500F601F701A4237008AC007108AD0027
:1004E0007208AE007308AF002608F4002708F50074
:1004F000F601F7010A237008AC007108AD0072081C
:10050000AE007308AF000330F400740803198F2A9B
:10051000F30CF20CF10CF00CF313FF3F862A700879
:10052000AA007108AB0033242808F4002908F5005C
:10053000F601F701A4237008B0007108B100720839
:10054000B2007308B3002A08F0002B08F100F20192
:10055000F3010330F40074080319B52AF00DF10D0E
:10056000F20DF30D7010FF3FAC2A7008F400710813
:10057000F5007208F6007308F7003008F000310843
:10058000F1003208F2003308F3000A237008AC00CF
:100590007108AD007208AE007308AF000A30F400B5
:1005A0000030F5002A08F0002B08F100DB2370086A
:1005B000AA007108AB0000307102031DE12A03306C
:1005C00070020318E42A0800210884002C08F000B7
:1005D0002D08F1002E08F2002F08F3000130AC02C4
:1005E000031CAD02031CAE02031CAF0270087104B1
:1005F000720473040319072B220880042A08B4002C
:100600001424230880052A08B4001424E62A2308A9
:100610008005080003138312FC01F71BFC0AFD018F
:10062000FB01FA01F901F801730872047104700406
:1006300003199E2B73087706A000A01BFD09F71F66
:100640002C2BF409F509F609F709F40A0319F50A40
:100650000319F60A0319F70AF31F392BF009F109F8
:10066000F209F309F00A0319F10A0319F20A03194E
:10067000F30A73087704A000A01B5A2B3621FC1B39
:10068000772BFD1F9E2BF009F109F209F309F00AFF
:100690000319F10A0319F20A0319F30AF809F9090F
:1006A000FA09FB09F80A0319F90A0319FA0A0319E6
:1006B000FB0A9E2BF71F712BF31B6B2B7308FB00A0
:1006C0007208FA007108F9007008F800F301F201ED
:1006D000F101F001412BF301F201F101F001F00A07
:1006E0000034F309F209F109F009FC173E2BF80A6E
:1006F0000319F90A0319FA0A0319FB0A74087802A4
:10070000031D412B75087902031D412B76087A02DF
:10071000031D412B77087B02031D412BFB01FA01CE
:10072000F901F801F00A0319F10A0319F20A031991
:10073000F30AF31F412BA0012016FF34A0017C1CFB
:10074000A22B2524003F0800031383122230FC0053
:10075000F801F901FA01FB01FC030319DA2B03107C
:10076000FB0CFA0CF90CF80CF30CF20CF10CF00C7D
:10077000031CAC2BFC030319CC2B7408F807750879
:100780000318750FF90776080318760FFA0777082C
:100790000318770FFB07B02B7408F80775080318C8
:1007A000750FF90776080318760FFA07770803180C
:1007B000770FFB07080003138312F801F9011030CB
:1007C000FC00710DF80DF90D7408F8027508031C92
:1007D000750FF9020318F32B7408F807750803184E
:1007E000750FF9070310F00DF10DFC0BE12B08005C
:1007F000031383122608A1002708F1000130F0003E
:1008000071080319072CF00D7010FF3F012C7008C0
:10081000A200F0097008A300260884007008800573
:10082000841770088005080003138312B403B4030F
:100830003408003C0318212CB40300000000000021
:10084000182C000000000000080003138312FB09AD
:10085000FA09F909F809F80A0319F90A0319FA0A51
:100860000319FB0A0800A03003138312F0000F30B5
:10087000F100F201F3010800FF3FFF3FFF3FFF3FA0
:02400E007A3FF7
:00000001FF
