:100000008A2AFF3FFF3FFF3F031383127408F80261
:100010007508031C750FF9027608031C760FFA02A7
:100020007708031C770FFB02F30D0730FC00730DFC
:10003000F80DF90DFA0DFB0D7408731C2D28F8024C
:100040007508031C750FF9027608031C760FFA0277
:100050007708031C770FFB023A28F8077508031886
:10006000750FF90776080318760FFA077708031853
:10007000770FFB07F30DFC0B1728720DF80DF90D28
:10008000FA0DFB0D7408731C5328F8027508031C45
:10009000750FF9027608031C760FFA027708031C25
:1000A000770FFB026028F80775080318750FF9072A
:1000B00076080318760FFA0777080318770FFB07FF
:1000C000F20D0730FC00720DF80DF90DFA0DFB0D65
:1000D0007408721C7928F8027508031C750FF90260
:1000E0007608031C760FFA027708031C770FFB02D1
:1000F0008628F80775080318750FF907760803189E
:10010000760FFA0777080318770FFB07F20DFC0B41
:100110006328710DF80DF90DFA0DFB0D7408721CB2
:100120009F28F8027508031C750FF9027608031C56
:10013000760FFA027708031C770FFB02AC28F8074A
:1001400075080318750FF90776080318760FFA0774
:1001500077080318770FFB07F10D0730FC00710DCE
:10016000F80DF90DFA0DFB0D7408711CC528F80285
:100170007508031C750FF9027608031C760FFA0246
:100180007708031C770FFB02D228F80775080318BD
:10019000750FF90776080318760FFA077708031822
:1001A000770FFB07F10DFC0BAF28700DF80DF90D63
:1001B000FA0DFB0D7408711CEB28F8027508031C7E
:1001C000750FF9027608031C760FFA027708031CF4
:1001D000770FFB02F828F80775080318750FF90761
:1001E00076080318760FFA0777080318770FFB07CE
:1001F000F00D0730FC00700DF80DF90DFA0DFB0D38
:100200007408701C1129F8027508031C750FF90297
:100210007608031C760FFA027708031C770FFB029F
:100220001E29F80775080318750FF90776080318D3
:10023000760FFA0777080318770FFB07F00DFC0B12
:10024000FB28701831297408F80775080318750F12
:10025000F90776080318760FFA0777080318770F5F
:10026000FB0708008A23E830F4000330F500F601AC
:10027000F701A8227008AC007108AD007208AE004A
:100280007308AF002608F4002708F500F601F7010F
:10029000D8217008AC007108AD007208AE00730878
:1002A000AF000330F400740803195D29F30CF20C5D
:1002B000F10CF00CF313FF3F54297008AA007108E9
:1002C000AB008A232808F4002908F500F601F7019D
:1002D000A8227008B0007108B1007208B20073085B
:1002E000B3002A08F0002B08F100F201F3010330FB
:1002F000F400740803198329F00DF10DF20DF30DCC
:100300007010FF3F7A297008F4007108F500720838
:10031000F6007308F7003008F0003108F1003208E9
:10032000F2003308F300D8217008AC007108AD006A
:100330007208AE007308AF000A30F4000030F50018
:100340002A08F0002B08F100DF227008AA007108CB
:10035000AB0000307102031DAF2903307002031897
:10036000B2290800210884002C08F0002D08F100B3
:100370002E08F2002F08F3000130AC02031CAD027E
:10038000031CAE02031CAF027008710472047304F4
:100390000319D529220880042A08B400262323083B
:1003A00080052A08B4002623B42923088005080004
:1003B00003138312FC01F71BFC0AFD01FB01FA0188
:1003C000F901F801730872047104700403196C2AAE
:1003D00073087706A000A01BFD09F71FFA29F4098E
:1003E000F509F609F709F40A0319F50A0319F60ADB
:1003F0000319F70AF31F072AF009F109F209F309B3
:10040000F00A0319F10A0319F20A0319F30A73082F
:100410007704A000A01B282A0420FC1B452AFD1FEE
:100420006C2AF009F109F209F309F00A0319F10A3B
:100430000319F20A0319F30AF809F909FA09FB0981
:10044000F80A0319F90A0319FA0A0319FB0A6C2AB4
:10045000F71F3F2AF31B392A7308FB007208FA00C2
:100460007108F9007008F800F301F201F101F001E0
:100470000F2AF301F201F101F001F00A0034F3094F
:10048000F209F109F009FC170C2AF80A0319F90A14
:100490000319FA0A0319FB0A74087802031D0F2ACC
:1004A00075087902031D0F2A76087A02031D0F2AA8
:1004B00077087B02031D0F2AFB01FA01F901F801FD
:1004C000F00A0319F10A0319F20A0319F30AF31FD8
:1004D0000F2AA0012016FF34A0017C1C702A7C2367
:1004E000003F0800712366235B235B23712366238F
:1004F0005B235B23712366235B23712366235B23CA
:100500005B23712366235B235B235B2366236623C4
:10051000712308000F30031383169F0086010630F5
:100520008312A4000130A500FC220630A400023092
:10053000A500FC22E830A6000330A700F430A80094
:100540000130A90032217123662318237222A72AC1
:10055000031383122230FC00F801F901FA01FB01B8
:10056000FC030319DE2A0310FB0CFA0CF90CF80C3F
:10057000F30CF20CF10CF00C031CB02AFC03031971
:10058000D02A7408F80775080318750FF90776085C
:100590000318760FFA0777080318770FFB07B42ABA
:1005A0007408F80775080318750FF907760803181B
:1005B000760FFA0777080318770FFB070800031375
:1005C0008312F801F9011030FC00710DF80DF90DDE
:1005D0007408F8027508031C750FF9020318F72A4E
:1005E0007408F80775080318750FF9070310F00D64
:1005F000F10DFC0BE52A0800031383122408A10067
:100600002508F1000130F000710803190B2BF00DE3
:100610007010FF3F052B7008A200F0097008A300BE
:10062000240884007008800584177008800508007D
:10063000093003138312A4002408003C0318252B5F
:100640004F2343233723A4031C2B080003138312D7
:10065000B403B4033408003C0318332BB403000084
:10066000000000002A2B00000000000008002630D7
:1006700003138312A6000530A7003230A800003013
:10068000A90032210800163003138312A60004309B
:10069000A7003230A8000030A900322108007030D5
:1006A00003138312A6000330A7003230A8000030E5
:1006B000A90032210800103003138312A600033072
:1006C000A700FA30A800A90132210800BA300313AC
:1006D0008312A6000230A700FA30A800A901322137
:1006E0000800933003138312A6000230A700FA30EB
:1006F000A800A9013221080003138312FB09FA099B
:10070000F909F809F80A0319F90A0319FA0A031989
:10071000FB0A0800A03003138312F0000F30F10031
:10072000F201F3010800FF3FFF3FFF3FFF3FFF3FA4
:02400E007A3FF7
:00000001FF
