:100000000428FF3FFF3FFF3F8E26FF308316850009
:1000100080309F00860106308312EB00AE24013051
:100020008316A700B7250130EB000130EC00300843
:10003000ED00F925EB013E2670088312B10071082E
:10004000B200B301B4013108F0003208F100330806
:10005000F2003408F3006C26F630F4002830F50086
:100060001C30F6008130F700FA2424247008B10017
:100070007108B2007208B3007308B4000A30F400CB
:10008000F501F601F7018A237008E7007108E8001E
:100090007208E9007308EA006708B1006808B20056
:1000A0006908B3006A08B4006430F400F501F60191
:1000B000F7016708F0006808F1006908F2006A08B3
:1000C000F3008A237808F0007908F1007A08F2003A
:1000D0007B08F3007008B5007108B6007208B7001D
:1000E0007308B80080306A06F00080307002031D8B
:1000F000832800306902031D832800306802031D35
:1001000083281A30670203188A281B30B100B20115
:10011000B301B4018030F000803034067002031D5A
:100120009B283308003C031D9B283208003C031D1C
:100130009B283108373C0318A2283730B100B201A0
:10014000B301B4013108EB003208EC003308ED00D4
:100150003408EE003930EF0091228312CD01CE0138
:10016000CF01D0015008003C031DB8284F080B3CBC
:10017000031CD6284F08393F84000008F400740897
:10018000203A0319D2284D08513FF4004F08393F57
:1001900084000008F0007408840070088000CD0A14
:1001A0000319CE0ACF0A0319D00AB2284D08513FCD
:1001B000F000700884002E3080000A30F400F50151
:1001C000F601F7013508F0003608F1003708F200B3
:1001D0003808F3008A237008E7007108E800720805
:1001E000E9007308EA006708E5000A30F400F50149
:1001F000F601F7013508F0003608F1003708F20083
:100200003808F3008A237808F0007908F1007A08AA
:10021000F2007B08F3007008E600CD0A0319CE0A4D
:100220004D08513FF4006708303FF0007408840027
:1002300070088000CD0A0319CE0A4D08513FF40022
:100240006608303FF0007408840070088000CD0A12
:100250000319CE0A4D08513FF00070088400800158
:100260006630FC00FF30FB00FF30FA00FC0B392940
:100270004029FB0B3C293F29FA0B3C293929362917
:10028000FC30FB00FF30FA00FB0B47294A29FA0B30
:10029000472944296A30FA00FA0B4C29C0308316EA
:1002A000A700B7250230EB000130EC005130ED0023
:1002B000F92563308316A600E7260C308316A700C5
:1002C000B7251A286229031383127408F8027508E7
:1002D000031C750FF9027608031C760FFA027708E3
:1002E000031C770FFB02F30D0730FC00730DF80DB4
:1002F000F90DFA0DFB0D7408731C8C29F8027508B2
:10030000031C750FF9027608031C760FFA027708B2
:10031000031C770FFB029929F80775080318750F5E
:10032000F90776080318760FFA0777080318770F8E
:10033000FB07F30DFC0B7629720DF80DF90DFA0D84
:10034000FB0D7408731CB229F8027508031C750FA5
:10035000F9027608031C760FFA027708031C770F60
:10036000FB02BF29F80775080318750FF90776080F
:100370000318760FFA0777080318770FFB07F20DBB
:100380000730FC00720DF80DF90DFA0DFB0D740825
:10039000721CD829F8027508031C750FF90276083B
:1003A000031C760FFA027708031C770FFB02E5297E
:1003B000F80775080318750FF90776080318760F04
:1003C000FA0777080318770FFB07F20DFC0BC22919
:1003D000710DF80DF90DFA0DFB0D7408721CFE2954
:1003E000F8027508031C750FF9027608031C760FD6
:1003F000FA027708031C770FFB020B2AF80775082F
:100400000318750FF90776080318760FFA077708AF
:100410000318770FFB07F10D0730FC00710DF80D85
:10042000F90DFA0DFB0D7408711C242AF8027508E9
:10043000031C750FF9027608031C760FFA02770881
:10044000031C770FFB02312AF80775080318750F94
:10045000F90776080318760FFA0777080318770F5D
:10046000FB07F10DFC0B0E2A700DF80DF90DFA0DBE
:10047000FB0D7408711C4A2AF8027508031C750FDD
:10048000F9027608031C760FFA027708031C770F2F
:10049000FB02572AF80775080318750FF907760845
:1004A0000318760FFA0777080318770FFB07F00D8C
:1004B0000730FC00700DF80DF90DFA0DFB0D7408F6
:1004C000701C702AF8027508031C750FF902760873
:1004D000031C760FFA027708031C770FFB027D2AB4
:1004E000F80775080318750FF90776080318760FD3
:1004F000FA0777080318770FFB07F00DFC0B5A2A51
:100500007018902A7408F80775080318750FF90712
:1005100076080318760FFA0777080318770FFB079A
:10052000080003138316A501803083126E06F000C5
:1005300080307002031DA62A00306D02031DA62A1A
:1005400000306C02031DA62A00306B020318C62A75
:1005500001308316A500F001F101F201F3018312CD
:100560006B08F0026C08031C6C0FF1026D08031C91
:100570006D0FF2026E08031C6E0FF3027008EB00A1
:100580007108EC007208ED007308EE006B0883162A
:10059000A00083126C088316A10083126D088316D5
:1005A000A20083126E088316A3000130A4008030DD
:1005B000F000803083126E067002031DE92A6D0878
:1005C000003C031DE92A6C08003C031DE92A6B0866
:1005D000003C0318042B0A30F400F501F601F70182
:1005E0006B08F0006C08F1006D08F2006E08F30073
:1005F0008A237008EB007108EC007208ED007308A4
:10060000EE008316A40AD72A03138316A40300302E
:10061000F0002306031D162B70082206031D162B5F
:1006200070082106031D162B2008003A031D1A2B03
:100630000130A40083126F08840020308000203035
:10064000840A8000840A8000840A8000840A800072
:10065000840A8000840A8000840A8000840A800062
:10066000840A8000840A8000840A8001840383163F
:100670002408003C0318842B0A30F400F501F6012D
:10068000F7012008F0002108F1002208F2002308F9
:10069000F3008A237808F0007908F1007A08F20064
:1006A0007B08F300700880000008F400F501F601F3
:1006B000F70183162008F0002108F1002208F2005B
:1006C0002308F3007408F0027508031C750FF1028B
:1006D0007608031C760FF2027708031C770FF302EB
:1006E0000A30F400F501F601F7018A237008831639
:1006F000A0007108A1007208A2007308A3003030A6
:1007000080078403A403372B25080319892B2D3078
:100710008000080003138312FC01F71BFC0AFD0193
:10072000FB01FA01F901F801730872047104700405
:1007300003191E2C73087706A100A11BFD09F71FE2
:10074000AC2BF409F509F609F709F40A0319F50ABF
:100750000319F60A0319F70AF31FB92BF009F10977
:10076000F209F309F00A0319F10A0319F20A03194D
:10077000F30A73087704A100A11BDA2B6321FC1B89
:10078000F72BFD1F1E2CF009F109F209F309F00AFD
:100790000319F10A0319F20A0319F30AF809F9090E
:1007A000FA09FB09F80A0319F90A0319FA0A0319E5
:1007B000FB0A1E2CF71FF12BF31BEB2B7308FB001E
:1007C0007208FA007108F9007008F800F301F201EC
:1007D000F101F001C12BF301F201F101F001F00A86
:1007E0000034F309F209F109F009FC17BE2BF80AED
:1007F0000319F90A0319FA0A0319FB0A74087802A3
:10080000031DC12B75087902031DC12B76087A02DE
:10081000031DC12B77087B02031DC12BFB01FA01CD
:10082000F901F801F00A0319F10A0319F20A031990
:10083000F30AF31FC12BA1012116FF34A1017C1C77
:10084000222CCB26003F080003138312FB01FC017E
:10085000F801730803199C2C7208FA00F2179E30F5
:10086000F302F31F8C2CF309F30A08307302031C04
:10087000612CF300F80D7008F8007108F0007208A0
:10088000F100F20108307302031C612CF300F80D33
:100890007008F8007108F000F10108307302031CC1
:1008A000612CF300F80D7008F800F00108307302B5
:1008B000031C612CF300F80DF8017308031D0310ED
:1008C0006B2C730803196B2C0310F20CF10CF00C59
:1008D000F80CF30B642C7B1B781C792C031C792CF3
:1008E000F80A0319F00A0319F10A0319F20AF21BB4
:1008F000992CFA1F9C2CF209F109F009F809F80A61
:100900000319F00A0319F10A0319F20A9C2CF201E7
:10091000F101F001F8019C2C7B14FB1F9F2CF201CC
:10092000FA1F9F2CF200F100F000F800FA0DF20C13
:100930009F2C0130FC00A12C0030FC00A12CFF30CA
:10094000FC00FC080319A52CBC267208F3007108F2
:10095000F2007008F1007808F0000800AA26AA2624
:10096000AA266B08A2006B0884008417801100116E
:1009700000108013001380120012841380110011E4
:1009800000108013001380120012801600168015CC
:100990008011AA2680158011AA2680158011AA260A
:1009A0008016001280158011AA26800180168015FD
:1009B00080118001801780158011AA268001001601
:1009C00080158011800180158011AA268001801574
:1009D0008011001680158011AA26800180158011D3
:1009E000001680160017801780158011AA26013086
:1009F000A300080003138312FB017308031D77088B
:100A00000319512D72087606FA007708F3077E3035
:100A1000031C0E2DF3020318542D112DF302031C99
:100A2000572D7208F8007108FC007008FD00F817D7
:100A3000F6170310F201F101F0011830A0007D1C3F
:100A40002B2D7408F00775080318750FF107760849
:100A50000318760FF207F20CF10CF00CF80CFC0CFA
:100A6000FD0C0310A00B1F2DF21B3B2DF80DF00DFC
:100A7000F10DF20DF3037B1B701C4D2DF81F4D2D56
:100A8000F00A0319F10A0319F20A031D4D2DF20CA5
:100A9000F10CF00CF30A0319542DFA1FF213003075
:100AA000592D0130FF26592D0230F126592D0430E1
:100AB000D92600000800031383127C18932DFC181C
:100AC000642D7C19B22D5D2DA0017208031D842DAB
:100AD0007108F2007008F1007808F000F801A01524
:100AE0007208031D842D7108F2007008F100F001F6
:100AF000A01120167208031D842D7108F200F10167
:100B0000A01572080319A62D2008F302031D031C6B
:100B1000AA2D0310F21B932DF80DF00DF10DF20D1F
:100B2000F30B8A2DAA2D7B1B701CAE2DF81FAE2D4A
:100B3000F00A0319F10A0319F20A031DAE2DF20C93
:100B4000F10CF00CF30A0319B22DAE2D0130FC00AC
:100B5000FF26B52D0230FC00D926B52D0430FC004F
:100B60001727B52D0830FC00F126000008000313FC
:100B7000831222088400831627080319BF2D8011D1
:100B800000118013001380120012A71B8017271B6F
:100B90000017A71A8016271A0016831223080319B4
:100BA000D32D0011D42D001580151D27831627087D
:100BB0000319DA2D80110011801300138012001226
:100BC000A719801727190017A718801627180016CD
:100BD000831223080319EE2D0011EF2D0015801547
:100BE0001D27801123080319F72DAA26F82D102799
:100BF00008000B2E803003138312EB001E2EC03032
:100C0000EB001E2E9430EB001E2ED430EB001E2E77
:100C10008030EB001E2E031383126B08013A031978
:100C2000FA2D6B08023A0319FF2D6B08033A0319DA
:100C3000022E6B08043A0319052E082E6C03F000EF
:100C40006B08F0077008EB0070088316A700B72543
:100C5000A301EE016E086D0784000008F000700823
:100C600003193B2E6E086D07840000088316A6004A
:100C7000E726EE0A2A2E0130A30008000313831290
:100C80009F01C0309F0483161F179F1783126B08A4
:100C9000F000F00D7010F00D7010F00D7010700875
:100CA0009F041F1408271F151F1D582E0000542EC7
:100CB0001F100830F2001E08F000F101720803193D
:100CC000662EF00DF10D7010FF3F5F2E83161E088B
:100CD000F0040030F1040800031383127008F800D8
:100CE0007108F0007208F1007308F200F301FB01D3
:100CF000FC019E30F300FA01F21F8A2EF809F00978
:100D0000F109F209F80A0319F00A0319F10A0319A3
:100D1000F20AFA170230FC005B2508005430031376
:100D20008312A4004530A5004D30A6005030A70026
:100D30004530A8005230A9004130AA005430AB0021
:100D40005530AC005230AD004530AE00AF0124301C
:100D5000B00008000F3003138312FB00FF30FA00CD
:100D6000FB0BB32EB62EFA0BB32EB02E3E30FA008C
:100D7000FA0BB82E00000800031383127B14FB1F2C
:100D8000C92EF201FA1FFF30F200F100F000FA0D57
:100D9000F20CFF30080003138312FB09FA09F9096A
:100DA000F809F80A0319F90A0319FA0A0319FB0AE0
:100DB0000800031383127B15FB1FE52E0130F3009F
:100DC000F201F101F001FA0DF20CFF3008000313FB
:100DD0008312A30183162608A700B7250130A300BC
:100DE000080003138312FB14FB1FFD2EFF30F300DA
:100DF000F200F100F000FA0DF20CFF3008000313CE
:100E00008312F201F101F001F801F3010030080052
:100E10000E3003138312FA00FA0B0C2F00000800A7
:100E2000213003138312FA00FA0B142F0800031366
:100E30008312FA1FF21300300800000000000800BF
:02400E007A3FF7
:00000001FF
