:100000000428FF3FFF3FFF3F813003138316990011
:100010001811262041207008031914283620700872
:10002000A000700AA10016200A281528003003132A
:10003000831698180130F1007108003A031D222838
:100040000000162883122108990008000313831664
:10005000981690308312980083168717071383121F
:100060008C1E35281A08A5002F28080003138312B8
:100070001A08A100981C3E28181218162108F00032
:1000800008000030031383128C1A0130F10071084C
:10009000F0000800FF3FFF3FFF3FFF3FFF3FFF3FF4
:02400E007A3FF7
:00000001FF
